:020000040800F2
:100000005006002045010008C70B00082D0B000812
:10001000C50B00088B020008D71A0008000000007A
:10002000000000000000000000000000B110000807
:100030006509000800000000810D00087D17000818
:100040005F0100085F0100085F0100085F01000810
:100050005F0100085F0100085F0100085F01000800
:100060005F0100085F0100085F0100085F010008F0
:100070005F0100085F0100085F0100085F010008E0
:100080005F0100085F0100085F0100085F010008D0
:10009000851A00085F0100085F0100085F01000881
:1000A0005F0100085F0100085F0100085F010008B0
:1000B0005F0100085F0100085F0100085F010008A0
:1000C0005F0100085F0100085F0100085F01000890
:1000D0005F0100085F0100085F0100085F01000880
:1000E0005F0100085F0100085F0100085F01000870
:1000F0005F0100085F0100085F0100085F01000860
:100100005F0100085F0100085F0100085F0100084F
:100110005F0100085F0100085F0100085F0100083F
:100120005F0100085F0100085F0100085F0100082F
:10013000DFF80CD000F04AF800480047C51F00085F
:10014000500600200648804706480047FEE7FEE7C5
:10015000FEE7FEE7FEE7FEE7FEE7FEE7FEE7FEE777
:1001600081170008310100082DE9F05F05460020E5
:1001700092469B4688460646814640241BE0284618
:1001800041464746224600F042F853465A46C01AB6
:10019000914110D311461846224600F029F82D1A35
:1001A00067EB01084F4622460120002100F020F8AD
:1001B00017EB00094E41201EA4F10104DFDC484684
:1001C00031462A464346BDE8F09F0000064C074DE5
:1001D00006E0E06840F0010394E807009847103417
:1001E000AC42F6D3FFF7A8FFD8220008F822000897
:1001F000202A04DB203A00FA02F1002070479140E7
:10020000C2F1200320FA03F3194390407047202ADB
:1002100004DB203A21FA02F00021704721FA02F3B0
:10022000D040C2F12002914008431946704770B592
:1002300001EB020410F8015B15F0070301D110F87F
:10024000013B2A1106D110F8012B03E010F8016BD5
:1002500001F8016B5B1EF9D12B0705D40023521E58
:100260000FD401F8013BFAE710F8013B02F102025A
:10027000A1EB030303E013F8015B01F8015B521EDD
:10028000F9D5A142D6D3002070BDFEE7C1B2000A65
:1002900040EA0120704700002DE9F84F0020ADF83A
:1002A00000004BF6BF7748F28008484E40F68F7941
:1002B000474D484C48F60F7ADFF81CB12AE0088811
:1002C00010F00F0028702FD004EB80000168ADF80B
:1002D0000010BDF8001009040AD5016801EA0901FF
:1002E00001603E48297800EB810050F8040C8047FB
:1002F000BDF8000000060DD5287804EB80000168E9
:1003000001EA0A0101603648297800EB810050F8C3
:10031000040C80472F48443000685946ABF8000071
:100320000004CCD4BDE8F88F20683080308800F01D
:1003300030007080308800F44050308020683840B1
:1003400080F4005080F0200040EA08002060088817
:10035000C00617D4216801EA0A01216000F0E8FB19
:1003600028E03188890401D580F400507188C906DD
:1003700028D47188890601D580F0200040EA080061
:100380002060CFE72068ADF80000BDF80000000550
:1003900006D5206800EA0900206001F025F809E090
:1003A000BDF800000004B5D5206800EA090020600F
:1003B00000F0B2FC206831883840C904D1D580F4FF
:1003C0008050CEE780F01000D3E700002A00002024
:1003D00018000020005C004056000020740000203F
:1003E00058000020074901EB80000168490407D547
:1003F000016848F68F7211404CF28002114301608F
:1004000070470000005C0040074901EB8000016874
:10041000490607D5016848F68F72114048F2C002BC
:100420001143016070470000005C0040054901EB8A
:100430008000016848F68F62114048F28002114343
:1004400001607047005C0040124910B50A68062838
:10045000117801F07F0103D1012901D1537913B142
:1004600021290AD013E09078222802D0212802D036
:100470000DE0094904E0094902E0032807D10849D1
:1004800029B10020916150828847002010BD0220D0
:1004900010BD00001C000020E5040008BD04000899
:1004A000C9040008014901F05DB80000A000002067
:1004B000014901F057B8000098000020014901F0FF
:1004C00051B80000A800002008B104487047044952
:1004D0000120096808820020704700009400002075
:1004E0001C0000200020704705490968C9780429CC
:1004F00001D900207047034A02EBC10101F032B874
:100500001C000020E000002009B9002800D00220D3
:100510007047000006490968097801F07F01212928
:1005200001D10B2801D00220704700F083B80000F1
:100530001C00002070B53248002100688172C17231
:100540003049C9794172002000F0B4FD4FF40071C8
:10055000002000F075FE1021002000F049FE182157
:10056000002000F0CFFD5821002000F023FE0020E5
:10057000FFF75CFF244890F82C10002000F0D2FD1B
:10058000002000F007FE0021012000F059FE982114
:10059000012000F0B7FDD821012000F00BFE402122
:1005A000012000F0BFFD4FF440542146012000F02F
:1005B000D9FD2021012000F01BFE0021022000F0C7
:1005C0003FFE4FF49071022000F09CFD4FF4B0719B
:1005D000022000F0EFFD4021022000F0A3FD2146A3
:1005E000022000F0BFFD2021022000F001FE074D97
:1005F00001242C60002000F065FD2C6070BD00001F
:100600001C00002026210008B0000020240100204A
:100610000348807A002802D002490520086070470C
:1006200030010020240100200149042008607047A7
:1006300024010020034804490068C07808600020B5
:10064000704700001C000020940000207047704795
:1006500010B500F051FA054800240068847200F0DB
:10066000B3FB01F011FA0248046010BD1C00002029
:10067000240100202DE9F047DFF89490254F4FF03A
:100680003008D9F8001001F11005088A0E7A08B96F
:10069000042E04D0AC88A04215D8042614E01E49CC
:1006A0000878012803D00726102038802BE01B4A49
:1006B000002012681A4B92B203EB42025060A7F876
:1006C000008008701FE00226844200D90446A96811
:1006D000204688478246002000F000FA0146224664
:1006E000504601F0F9F92146002000F073FD2888FA
:1006F000001B2880688820446880A7F8008009498A
:100700004FF440500880D9F800000672BDE8F08729
:100710001C0000202C00002014000020505C004031
:10072000006000402A0000202DE9F047224EDFF84B
:100730008C803027346834F8100FA168A9B100B359
:10074000A588854200D905462846884781462088E5
:10075000401B2080608828446080002000F09EF9C3
:1007600001462A46484600F0FBFA208848B1144961
:100770004FF4405008800021084600F02BFDA8F8F7
:1007800000702088A188884201D3032001E020B1B5
:10079000052031680872BDE8F087316806200872CC
:1007A000084900200968084A89B202EB4101486003
:1007B000A8F80070EFE700001C0000202C000020CB
:1007C0002A000020505C004000600040F8B55C4CFE
:1007D0005C4D09262068002729684278062A05D042
:1007E000AAB1082A4BD00A2A4ED069E002785206F4
:1007F00066D18078012804D0022804D0032804D0D0
:100800005EE0C96954E0096A52E0496A50E04288F2
:10081000A2BBC288022A53D102797ABB027853065E
:1008200001D1838833B102F07F02012A04D0022A69
:100830000CD045E044493BE08A694079002190476B
:10084000E0B92068807A0028F4D139E0417901F0DC
:100850000F0001F070020B063C4951F8201003D53F
:10086000C1F30111090102E0C1F301310903384B61
:100870001B78834224D90AB90029DBD120E0007813
:1008800040061DD1334913E0027802F07F02012AAD
:1008900016D1827AA2B1428892B9027982B9C2880D
:1008A000012A0DD18A6940790021904740B92A492F
:1008B00031B120684782816100208847002006E02E
:1008C00029682068096940788847032807D021688B
:1008D0000A8AA2F57F43FF3B04D10E72F8BD20685F
:1008E0000672F8BD022809D042B10878000621D569
:1008F000C8880090824205D9088213E04FF00800B2
:100900000872F8BD0ED22868144B90F82C00824271
:1009100001D21F7006E0B2FBF0F400FB142008B90E
:1009200001201870286890F82C008882BDE8F840F3
:10093000FFF7A0BE03200872094900030880F8BD34
:100940001C00002020000020A9150008005C0040C9
:10095000900000203D1500088115000814000020BB
:100960002A0000207047704710B5012000F0A6F85B
:10097000074908600868982182B2064800F0F0F93B
:10098000BDE810404FF44051012000F0EBBB0000E7
:100990004C0000204C0100207047000010B50220E0
:1009A00000F08CF80749486048684FF4907182B2B3
:1009B000054800F0D5F9BDE810404FF44051022041
:1009C00000F0D0BB4C0000204C010020704700001C
:1009D00004490A6822F010020A600A6802430A60A9
:1009E0007047000000200240034A116801F03801FE
:1009F000014311607047000000200240F0B5CC7840
:100A0000002204F00F03E40601D58C7823430C7810
:100A10004FF00F0C4FF0010EDCB105680E880EFA96
:100A200002F42640A64210D196000CFA06F725EAF9
:100A3000070703FA06F5CE783D43282E02D0482E4C
:100A400002D002E0446100E00461521C082AE5D3B0
:100A500005600A88FF2A1CD94468002202F10806B2
:100A60000EFA06F50E882E40AE420ED196000CFA14
:100A700006F7BC4303FA06F7CE783C43282E00D194
:100A80004561CE78482E00D10561521C082AE5D375
:100A90004460F0BD416170470161704705490968D4
:100AA00089B201EBC000044901EB4000008980B22B
:100AB00070470000505C0040006000400549096834
:100AC00089B201EBC000044901EB40008089C0F30A
:100AD00009007047505C004000600040044909680C
:100AE00089B201EBC000034931F8100080B27047B1
:100AF000505C0040006000400A4810B50168001DCD
:100B00000468001D006808180BD00822064900F090
:100B10003DF8054920460422BDE81040103100F0A0
:100B200035B810BDE8F7FF1F31000020FEE70000D8
:100B300010B5134C2068017A022904D0042902D090
:100B4000062905D015E0FFF795FD2068007A11E031
:100B50004178052909D10178490606D1C07800F00D
:100B6000B1FA08480068006A804707480068806852
:100B70008047082021680872BDE8104000F002B9E3
:100B80001C0000202400002020000020F0B50023DD
:100B90000A24302537261F4610E0B4EB107F02D917
:100BA00005EB107C01E006EB107C01F813C001EBB3
:100BB000430C00015B1C8CF80170DBB29342ECD358
:100BC000F0BD7047FEE770477047000070B50F2317
:100BD000C278017801244FF0E025DAB1124A126898
:100BE00002F4E062C2F5E062120AC2F10406D340E8
:100BF0004278B24086781E400C4B16433201CA54EC
:100C0000007800F01F018C40400905EB8000C0F81F
:100C1000004170BD01F01F008440480905EB8000D1
:100C2000C0F8804170BD00000CED00E000E400E081
:100C30000249084302490860704700000000FA05B5
:100C40000CED00E070B52F4D296808784C7842060D
:100C500006D000F07F00012828D002282BD035E0F4
:100C6000092C06D0052C07D0032C0ED0012C14D053
:100C70002CE000F0E1FC28E0C8787F282ED88878A6
:100C800060BB888850BB887A27E0C87801281DD1CE
:100C90008888D8B900F0ECFC17E0C878012815D195
:100CA000888898B9487A80060AD40FE00B2C0DD1B9
:100CB00000F030FD09E0012C02D0032C03D005E048
:100CC00000F0C6FB01E000F0E5FC58B10E492046FB
:100CD000096849698847032802D018B108200DE047
:100CE00009200BE0094A062000211268084B92B245
:100CF00003EB42025160074A3021118029680872D3
:100D000070BD00001C00002020000020505C00404E
:100D1000006000402C00002010B50F4C2068007AC5
:100D2000022811D004280FD0032804D0052802D0AF
:100D3000072805D008E0FFF7F7FC2068007A04E0F8
:100D400006480068C0688047082021680872BDE82E
:100D5000104000F017B800001C0000202000002008
:100D6000064B521C520803EB410105D031F8043BFD
:100D700020F8023B521EF9D170470000006000408D
:100D8000704700000C4810B590F82C10002000F0BF
:100D9000C9F90A480068007A082802D0092809D051
:100DA00006E007494FF4805008800649102008806B
:100DB000002010BD012010BDB00000201C0000204C
:100DC0002A0000202C00002010B5012000F0B4FD06
:100DD0000648012101600021054A0160031D1960D8
:100DE0004FF4E05111800160002010BD405C0040D4
:100DF00028000020044A0029D16901D0014300E005
:100E00008143D1617047000000100240044A00296C
:100E1000916901D0014300E0814391617047000076
:100E2000001002400C48016841F001010160416876
:100E30000A4A114041600168094A11400160016895
:100E400021F480210160416821F4FE0141604FF4EA
:100E50001F01816070470000001002400000FFF891
:100E6000FFFFF6FE30B5204A5168204B11F00C010F
:100E700003D0042901D0082901D0036012E0516891
:100E8000536801F470114FF0020413F4803F04EB37
:100E9000914102D053689B0301D5154B00E0134BE1
:100EA0005943016051680F2303EA1111114B5C5C37
:100EB0000168E14041605468072505EA14241C5D7F
:100EC00021FA04F48460546805EAD4241B5DD940F7
:100ED000C1605268032303EA9232064B1B1F9A5CDF
:100EE000B1FBF2F1016130BD0010024000127A0046
:100EF00000093D0004000020034600205909094A6A
:100F000001290AD002290AD0516A03F01F020123E5
:100F100093400B4200D0012070471168F5E7116A39
:100F2000F3E70000001002400248406800F00C00A7
:100F30007047000000100240034A516821F0F001A0
:100F40000143516070470000001002400B490A68DD
:100F500022F480320A600A6822F480220A60B0F526
:100F6000803F07D0B0F5802F03D1086840F4A0205F
:100F700008607047086840F48030F9E700100240CC
:100F8000034A516821F4E061014351607047000059
:100F900000100240034A516821F4605141EAC00048
:100FA0005060704700100240014908667047000019
:100FB00000004242034B5A68084322F47C1210435B
:100FC0005860704700100240034A516821F0030145
:100FD0000143516070470000001002400149086061
:100FE00070470000D800424218B500204FF4A064BA
:100FF00000903120FFF780FF0099491C0091A14229
:1010000001D00028F5D03120FFF776FF002800D06E
:10101000012018BD70B51C4C072800D02070207826
:1010200006260425194906282CD2DFE800F003061D
:10103000090E162000F02CF824E000F029F80AE050
:10104000022060700320207070BD6078401E6070C8
:1010500060780028F8D1257070BD086880B240F033
:1010600010000860052020700A20607070BD607854
:10107000401E607060780028F8D1086880B220F0C7
:1010800010000860267070BD29010020405C0040FF
:1010900010B5064C206880B220F004002060FFF7F5
:1010A00090FD4FF43F40206010BD0000405C0040C8
:1010B00070470000024920F00700086070470000F8
:1010C000505C0040F0B50D490D4E48F68F770D7815
:1010D000002148F2800C09E0CAB206EB82031C68CA
:1010E0003C40144344EA0C041C60491CA942F3D35D
:1010F000034940F080004C310860F0BD90000020B2
:10110000005C0040054A21F00101126892B202EB36
:10111000C000034A02EB400081607047505C004011
:10112000006000400D4A12683E2992B202EBC000F6
:101130000B4A02EB400209D94809C90601D1401EF9
:1011400080B24FF4004141EA802004E04808C9071A
:1011500000D0401C8002106070470000505C0040CE
:101160000C6000400A4A02EB800210684BF68F7355
:1011700000EA0300CB0401D580F48050890401D536
:1011800080F4005048F2800108431060704700006E
:10119000005C0040064901EB800001684BF68F724D
:1011A000114081F4405148F28002114301607047C0
:1011B000005C0040054A21F00101126892B202EB86
:1011C000C000034A42F8101070470000505C004015
:1011D00000600040044A126892B202EBC000034A69
:1011E00002EB400041607047505C004000600040EE
:1011F0000A4A02EB8002106848F6BF7300EA030057
:10120000CB0601D580F01000890601D580F02000C2
:1012100048F280010843106070470000005C004005
:10122000064901EB8000016848F6BF72114081F069
:10123000300148F28002114301607047005C0040B9
:10124000044A02EB8000026848F68F131A400A43F2
:1012500002607047005C00400CB5002226480092F6
:101260000192016841F4803101604FF4A06301688C
:1012700001F4003101910099491C0091019911B9C3
:1012800000999942F3D10168890333D50121019175
:101290001A490A6842F010020A600A6822F0030242
:1012A0000A600A6842F002020A60416841604168CF
:1012B0004160416841F480614160416821F47C11E2
:1012C0004160416841F4E8114160016841F080717A
:1012D000016001688901FCD5416821F0030141608A
:1012E000416841F0020141604168C1F38101022976
:1012F000FAD10CBD01920CBD00100240002002404A
:1013000038B5FFF78FFD4FF480342046FFF71EFEFF
:10131000FFF76AFE2B490128087000D0FEE7102075
:10132000FFF756FB0220FFF75FFB0020FFF704FEEC
:101330000020FFF72FFE4FF48060FFF721FE4FF4EF
:10134000E0112046FFF736FE0120FFF72DFE392081
:10135000FFF7D2FD0028FAD00220FFF735FEFFF795
:10136000E3FD0828FBD101214006FFF743FD0121E1
:101370004020FFF74BFD4FF40060ADF80000022065
:101380008DF8020010248DF8034069460E48FFF7DF
:1013900035FB01211020FFF739FDC020ADF800001A
:1013A00003208DF802008DF8034069460748FFF7D7
:1013B00025FB4FF44050ADF8000069460448FFF7A4
:1013C0001DFB38BD2E000020001801400008014020
:1013D000000C014010B50020FFF700FE0121BDE820
:1013E0001040C805FFF706BD70B516480068174DD8
:1013F00081B2154800EB4101098989B200EB410433
:101400002868017A09290FD021780170617841702C
:10141000A088FEF73BFF296848802089FEF736FF49
:1014200029688880A089C880286801210172C08845
:1014300028B1FFF7CBF9BDE87040FFF7A3BCFFF779
:1014400001FCF8E7505C0040006000401C000020F8
:101450002DE9F04134480068017811F07F0102D095
:10146000022905D05DE0417A01F0DF01417247E0D9
:101470004188002955D10179F1BB41792C4D21F0EA
:1014800080040A06294B55F8242003D5C2F3011223
:10149000120102E0C2F3013212031E782346A64273
:1014A0003FD94AB3807A38B308060DD555F82400E1
:1014B000C0F3011001281DD11846FEF7A5FF2046F4
:1014C0003021FFF795FE15E005EB84063068C0F388
:1014D000013001280ED14BF68F7748F2800894B185
:1014E0001846FEF77FFF3068384080F4405040EAED
:1014F000080030600F4800E013E000684069804752
:101500000020BDE8F0810C4890F82C100020FFF777
:1015100009FE2868384080F4405040EA08002860FE
:10152000E8E70220EDE700001C000020900000200A
:10153000005C004024000020B000002010B5074CE3
:1015400030B1074800680068804720680A3010BD45
:10155000216801200882002010BD00001C0000202E
:1015600024000020054A13685A8A10B10868104404
:1015700070478888801A1882002070471C0000205D
:1015800010B5074C30B10748006880688047206874
:101590000C3010BD216801200882002010BD000021
:1015A0001C000020240000201F4910B5096860B10C
:1015B0001E48002202800A7853060AD002F07F02F9
:1015C000012A16D0022A16D001E00220088200204B
:1015D00010BD497A8A06027802D542F0020201E083
:1015E00002F0FD0249060270D1B210D401F0FE01F2
:1015F0000FE00E4810BD497901F00F020B060C49AF
:1016000051F8221007D5C1F3011106E0017841F02D
:101610000101017003E0C1F301310129F6D0054851
:10162000006800698047E4E71C00002016000020E5
:10163000005C0040240000200A4810B500680A4AF7
:10164000C1785278914203D882780AB982880AB167
:10165000022010BD81720548006840688047002064
:1016600010BD00001C00002090000020240000207D
:10167000064810B50068417A41F0200141720448E3
:101680000068C0698047002010BD00001C000020D9
:101690002400002070B51B4802681B48517921F0D6
:1016A000800500EB85000B06036821F0800403D55C
:1016B000C3F301131B0102E0C3F301331B03134DFA
:1016C0002D78A5420FD954886CB963B1927A52B182
:1016D0000906016848F2800207D548F6BF73194031
:1016E00081F0100106E0022070BD4BF68F731940A7
:1016F00081F480511143016005480068806980478A
:10170000002070BD1C000020005C00409000002004
:101710002400002010B50E4C0E4A20681268C178D3
:1017200092694079904721688A7A22B118B908797C
:1017300008B9887808B1022010BD07480068C06861
:10174000804720684179C172C1780173002010BDC3
:101750001C00002020000020240000200648016812
:1017600089B241F008010160016889B241F00401C9
:101770000160FFF72BB90000405C0040704700009B
:101780000F4810B5016841F00101016041680D4A40
:101790001140416001680C4A11400160016821F468
:1017A00080210160416821F4FE0141604FF41F0176
:1017B0008160FFF751FD05494FF00060086010BDE2
:1017C000001002400000FFF8FFFFF6FE08ED00E009
:1017D0000029818902D041F4005101E021F4005137
:1017E000818170471FB500F09DF84FF4E130009003
:1017F0000020ADF80600ADF80400ADF80800ADF823
:101800000C000C20064CADF80A006946204600F09A
:101810002FF801212046FFF7DBFF00F003F81FBD82
:101820000038014038B518208DF803004FF40070DF
:10183000ADF800000320094C8DF8020069462046EF
:10184000FFF7DCF804218DF803100902ADF8001051
:1018500069462046FFF7D2F838BD00000008014075
:101860000246002012880A4200D001207047000082
:1018700030B50446008A85B00D464CF6FF7108402D
:10188000E98801432182A0894EF6F3110840A98816
:101890002A8911436A8902431143A181A08A4FF624
:1018A000FF410840A9890143A1826846FFF7DAFA9F
:1018B0001B48844201D1039800E00298A1890904E1
:1018C000002900EBC00101EB0010296802DA4FEAA1
:1018D000410101E04FEA8101B0FBF1F06422B0FB6D
:1018E000F2F14FEA01114FEA11136FF018056B4343
:1018F00000EB8300A3891D044FF0320306D503EBF0
:10190000C000B0FBF2F000F0070005E003EB0010B0
:10191000B0FBF2F000F00F000843208105B030BDAD
:1019200000380140012144F20400FFF76FBAC1F30F
:101930000801818070470000044A00284FF40061CC
:10194000104601D0FFF7A6B8FFF7A6B8001801406F
:1019500010B500231046402A00D94020044A03E075
:10196000D45C01F8014B5B1C8342F9D310BD00002D
:101970004C01002006490548022208600272064A0E
:101980000448C1E90102006800470000300100205E
:101990001C000020B00000200001002008B54FF41A
:1019A0004070FFF745F914208DF8000001208DF8F4
:1019B000010000218DF802108DF803006846FFF742
:1019C00005F908BD70B52A4C20682A4D68806888E2
:1019D000294E31880840000401D5FEF75DFC688877
:1019E00031880840400505D54FF6FF302060234878
:1019F00040688047698830880140890402D54DF6E7
:101A0000FF71216069880140C80405D54EF6FF705A
:101A100020600020FFF7FEFA688831880840000542
:101A20000BD51748007810B1FFF798FE02E00220AE
:101A3000FFF7F0FA4FF2FF702060698830880140AC
:101A4000890506D54FF6FF512160297801F1010182
:101A50002970698801EA0001C80507D54FF6FF60C3
:101A60002060BDE870400720FFF7D4BA70BD0000C9
:101A7000445C00405400002028000020B0000020FA
:101A800028010020FFF79EBF054900200860054996
:101A90004FF43F4008800249091F0860002070474A
:101AA000445C00402800002070B514460B460546F3
:101AB000012892B20DD04FF4B071184600F00CF826
:101AC000A1B22846FFF786FB2846FFF7A9FB204670
:101AD00070BDD821F1E7FEE7084B10B5521C520843
:101AE00003EB410108D003784478801C43EA0423C7
:101AF00021F8043B521EF6D110BD000000600040EA
:101B00000FB4054B10B503A9044A029800F018F869
:101B100010BC5DF814FB0000A11F00082C01002080
:101B200002E008C8121F08C1002AFAD170477047A6
:101B3000002001E001C1121F002AFBD17047000004
:101B40002DE9FF4F8DB00F4605460026DEE1252822
:101B500074D100246D1CF149A246A14601222B78C4
:101B6000203B02FA03F0084202D004436D1CF6E762
:101B700028782A2810D06FF02F022878A0F13001A1
:101B8000092915D80AEB8A0102EB410144F002044D
:101B900000EB010A6D1CF0E757F804ABBAF1000F37
:101BA00003DA44F40054CAF1000A44F002046D1C44
:101BB00028782E2817D115F8010F44F004042A289C
:101BC0000ED06FF02F022878A0F1300109290AD831
:101BD00009EB890102EB410100EB01096D1CF2E701
:101BE00057F8049B6D1C28786C280FD006DC4C2815
:101BF00017D068280DD06A2814D104E0742810D0BA
:101C00007A280FD10DE044F400140AE044F4801463
:101C100001E044F440146978814202D16D1C04F55E
:101C200080146D1C2A786E2A20D00DDC632A33D0F4
:101C300005DC002A6FD0582A12D1A2E011E0642AF4
:101C40006AD0692A0CD167E0732A2FD004DC6F2A8E
:101C50006FD0702A04D199E0752A6BD0782A6AD0A7
:101C60001046DDE90F129047761C4EE1C4F3025096
:101C7000022806D003280AD0042801CF0AD0066023
:101C800043E101CF4FEAE671C0E900613DE101CFD8
:101C900006803AE1067038E117F8040B8DF8000071
:101CA00000208DF80100EB46012003E057F804BB4B
:101CB0004FF0FF3061074FF0000102D40DE008F152
:101CC0000101884649450FDA8045F8DB1BF808100A
:101CD0000029F4D108E008F1010188468142FADBCD
:101CE0001BF808100029F6D1DDE90F23AAEB080044
:101CF0008146214600F03BF9304400EB080604E041
:101D0000DDE90F121BF8010B9047B8F10108F7D27B
:101D100021464846F4E0FDE00A21C4F302534FF0A7
:101D2000000B0891022B07D001CFC117032B09D05C
:101D30000AE034E023E024E0FF1D27F00707F7E87E
:101D4000020105E000B2C117042B01D140B2C11756
:101D5000002907DA4FF0000CD0EB0C006CEB01010E
:101D60002D2302E0230504D52B238DF824300123F5
:101D700003E0E30701D02023F7E7984650E00A216B
:101D80000EE010204FF0000B08900CE010214FF0F7
:101D9000000B44F004044FF00809089103E0082107
:101DA0004FF0000B0891C4F30253022B04D001CF73
:101DB0000021032B06D006E0FF1D27F00707F7E8F8
:101DC000020103E080B2042B00D1C0B24FF0000842
:101DD000230725D5702A2AD0DDF820C08CF0100CFE
:101DE0005CEA0B0C09D150EA010306D030238DF8D0
:101DF00024308DF8252002239846DDF820C08CF091
:101E0000080C5CEA0B0C0BD150EA010301D163070B
:101E100006D530238DF824304FF00108A9F10109CF
:101E2000582A09D03EA20B9208AA0A9211E0402338
:101E30008DF824300123DFE73EA2F4E75B46089AE1
:101E4000FEF792F90B9B9B5C0A9AA2F101020A929F
:101E5000137050EA0102F1D10A98ADEB000000F1D5
:101E6000200B600702D524F4803401E04FF0010913
:101E7000D94502DDA9EB0B0000E0002000EB0B01CF
:101E800041440890AAEB010AE00306D4DDE90F23E0
:101E90002146504600F06BF80644002008E009A9EE
:101EA00011F80900DDE90F129047761C09F10100D5
:101EB00081464045F3DBE0030CD5DDE90F232146E5
:101EC000504600F054F8064404E0DDE90F123020DB
:101ED0009047761C0899481E08900029F5DC08E018
:101EE0000A980A990078491C0A91DDE90F12904777
:101EF000761CBBF10001ABF1010BF1DC2146504631
:101F0000DDE90F2300F020F806446D1C2878002836
:101F10007FF41DAE11B03046BDE8F08F09280100F6
:101F2000303132333435363738396162636465664F
:101F30000000000030313233343536373839414211
:101F400043444546000000002DE9F04104460025C9
:101F50001E461746880405D406E039462020B047BF
:101F600005F10105641EF8D52846BDE8F0812DE98C
:101F7000F041044600251E469046C80301D530278F
:101F800000E02027880405D506E041463846B047E2
:101F900005F10105641EF8D52846BDE8F081000072
:101FA00070B5074D0446C1B22846FFF7C0FC80213A
:101FB0002846FFF755FC0028F9D0204670BD0000E8
:101FC00000380140C0B0FFF79BF9FFF70BFC36A0CB
:101FD000FFF796FD34A0FFF793FD34A0FFF790FDC7
:101FE0003548FFF78DFD34485430FFF789FD3248FE
:101FF000A830FFF785FD3048FC30FFF781FD2E4803
:10200000FFF77EFD2DA0FFF77BFDFFF7C7FCFFF775
:10201000E1F9FFF7AFFCDFF8A880DFF8A8906E4683
:102020000027D8F800004546D8B12A686946012043
:10203000FFF78EFC2A6869460120FFF735FD296805
:1020400021A0FFF75DFD002404E0315D26A0FFF72D
:1020500057FD641C28688442F7D325A0FFF750FD84
:102060002F60D9F800004D460028DAD02A6869466A
:102070000220FFF76DFC2A6869460220FFF714FD75
:1020800029681CA0FFF73CFD002404E0315D16A088
:10209000FFF736FD641C28688442F7D314A0FFF7CD
:1020A0002FFD2F60BDE700000C0000001B5B313BE3
:1020B00034303B33326D0000882100080D0A0000E7
:1020C0004C000020500000207573622045503120E4
:1020D0006765742064617461202564206279746589
:1020E00020646174610A0D00307825303258200078
:1020F0000A0D000075736220455032206765742018
:10210000646174612025642062797465206461745F
:10211000610A0D00120100020000004083145157B3
:1021200000020102030109022E00010100E0FA0988
:1021300004000004DCA0B000070581024000000795
:102140000501024000000705820240000007050269
:10215000024000000403090414034D0079005500F7
:10216000530042005F004800490044001A03420047
:102170007900200065006D006200650064002D009C
:102180006E006500740000000D0A2A2A2A2A2A2AF5
:102190002A2A2A2A2A2A2A2A2A2A2A2A2A2A2A2A9F
:1021A0002A2A2A2A2A2A2A2A2A2A2A2A2A2A2A2A8F
:1021B0002A2A2A2A2A2A2A2A2A2A2A2A2A2A2A2A7F
:1021C0002A2A2A2A2A2A2A2A2A2A2A2A2A2A2A2A6F
:1021D0002A2A2A2A2A2A2A2A2A0000000D0A2A2A1A
:1021E0002A2A2A2A2A2A2A2A2A2A2A2A2A2A2A2A4F
:1021F0002A2A2A2A2A2A20436F707972696768740A
:1022000020323030392D323031322C20456D62652C
:10221000644E6574202A2A2A2A2A2A2A2A2A2A2A45
:102220002A2A2A2A2A2A2A2A2A2A2A2A2A0000008C
:102230000D0A2A2A2A2A2A2A2A2A2A2A2A2A2A2A3B
:102240002A2A2A2A2A2A2A2A2A2A2A2A2A20687470
:1022500074703A2F2F7777772E656D6265642D6ED7
:1022600065742E636F6D202A2A2A2A2A2A2A2A2A8E
:102270002A2A2A2A2A2A2A2A2A2A2A2A2A2A2A2ABE
:102280002A0000000D0A2A2A2A2A2A2A2A2A2A2A69
:102290002A2A2A2A2A2A2A2A2A2A2A2A2A2A2A2A9E
:1022A0002A2A2A20416C6C20526967687473205274
:1022B00065736572766564202A2A2A2A2A2A2A2AC0
:1022C0002A2A2A2A2A2A2A2A2A2A2A2A2A2A2A2A6E
:1022D0002A2A2A2A2A000000F822000800000020EA
:1022E000300100002E020008802300083001002089
:1022F00020050000301B000845020406082D0102DD
:10230000030404051B06070809141A0378A902012F
:10231000191367091B0899040B10C90B041A6918D3
:102320000A159D1C6303011314213308121A260891
:10233000322E1A38082999135106140835051B083E
:102340004D081A4F041349041B0815101A09041AE2
:10235000B10C1AA5041AE9044132401A5438320467
:102360001A580832141A6C08321A222F2A20082907
:10237000741A114809128C29041A291C4159971101
:0400000508000131BD
:00000001FF
