S01D00004C515255475F626D655F6578315F66726565646F6D2E737265633B
S1130000F82F002011040000C91E0000C91E0000C2
S1130010C91E0000C91E0000C91E0000C91E000040
S1130020C91E0000C91E0000C91E0000C91E000030
S1130030C91E0000C91E0000C91E0000C91E000020
S1130040C91E0000C91E0000C91E0000C91E000010
S1130400FFFFFFFFFFFFFFFFFFFFFFFFFEFFFFFFF9
S113041000200021002200230024002500260027BC
S113042062B600F009FEFEE738B500BF2EA000F06A
S113043049FDA54880210905016000F055FD00F043
S113044061FD00F059FD00F04FFD00F065F800F08B
S113045053FD00F049FD00F07FF800F04DFD00F081
S113046043FD9A4C022305224021200000F092F81B
S113047000F042FD0020206000F036FD00F0AAF8F4
S113048000F03AFD00F030FDB14840210160B14D6B
S11304900621280000F0B6F800F02EFD00F024FD3F
S11304A000F0D2F800F028FD00F01EFD062128001F
S11304B000F0E8F800F020FD00F016FD00F008F967
S11304C000F01AFD00F010FD022305226946200009
S11304D000F01CF900F010FD00F006FD00F042F9F8
S11304E000F00AFD002032BD0A2D2D2D2D2D2D2DBD
S11304F02D2D2D2D2D2D2D2D2D2D424D4520446599
S11305006D6F2D2D2D2D2D2D2D2D2D2D2D2D2D2D95
S11305102D2D2D2D0A00000038B58F48810D016066
S11305208E4820224169114341618D4B196804684A
S1130530624002601C68081B974A1268851A00BF53
S11305409CA000F0BFFC2100A1A000F0BBFC29008E
S1130550A6A000F0B7FC31BD38B57F48810D01601D
S113056020208E490A6802430A607D4A11688C4B38
S113057018601468081B884A1268851A8DA000F058
S1130580A1FC210092A000F09DFC2900A9A000F08C
S113059099FC31BDF8B51400714D2A68066801272D
S11305A09F407F1EA740BE430F40374307602C681F
S11305B0101B79490968451A110000BF7DA000F09D
S11305C081FC210082A000F07DFC2900AAA000F09B
S11305D079FCF1BD38B562480168724A4023136062
S11305E00468081B6C4A1268851A00BF71A000F0E9
S11305F069FC210076A000F065FC2900AEA000F0A3
S113060061FC31BD70B50200554D2C680120884055
S113061013681668864316602D68621B5E4E366842
S1130620961B1840C840C1B2B3A000F04BFC210097
S113063060A000F047FC290065A000F043FC3100F5
S1130640B1A000F03FFC70BD70B54148402101608D
S113065043480468544909680568601B4E4A126897
S1130660861AC9B2B8A000F02DFC210051A000F0F8
S113067029FC290056A000F025FC3100B6A000F0AA
S113068021FC70BD70B50200354D2C6801208840F6
S113069013681668064316602D68621B3E4E366862
S11306A0961B1840C840C1B293A000F00BFC210077
S11306B040A000F007FC290045A000F003FC310035
S11306C0B5A000F0FFFB70BD3C80044808B00340B7
S11306D070B53548006822480468344909680568DB
S11306E0601B2D4A1268861AC9B200BF96A000F09A
S11306F0E9FB21002FA000F0E5FB290034A000F065
S1130700E1FB3100B4A000F0DDFB70BD70B5144D09
S11307102C68066801209840401E90403040D0402C
S113072008602D68611B1C4A12688E1A010000BF04
S1130730B9A000F0C7FB21001EA000F0C3FB2900F4
S113074023A000F0BFFB3100B9A000F0BBFB70BDDB
S113075000B0034800B003401490044000F00F4080
S113076018E000E070B5124804680E49096805688D
S1130770601B094A1268861AA7A000F0A3FB210097
S11307800CA000F09FFB290011A000F09BFB31009E
S1130790B7A000F097FB70BD24F4FF1F14F00F40C6
S11307A000F00F4C08B08B5200B0C34800B0C34CEB
S11307B018E000E07379737469636B207374617279
S11307C0742076616C75653A20307825780A0000CB
S11307D07379737469636B20656E642076616C75DC
S11307E0653A20307825780A00000000616374754A
S11307F0616C20657865637574696F6E20637963D5
S11308006C6520666F72206C6F676963206F70651A
S1130810726174696F6E2077697468206E6F726D8F
S1130820616C204320636F64653A20307825780A30
S11308300000000061637475616C20657865637500
S113084074696F6E206379636C6520666F72206CC7
S11308506F676963206F7065726174696F6E20776A
S113086069746820424D45206D6163726F733A204C
S1130870307825780A00000061637475616C206526
S11308807865637574696F6E206379636C6520663F
S11308906F7220424649206F7065726174696F6E91
S11308A02077697468206E6F726D616C20433A2002
S11308B0307825780A00000061637475616C2065E6
S11308C07865637574696F6E206379636C652066FF
S11308D06F7220424649206F7065726174696F6E51
S11308E0207769746820424D45206D6163726F3AC8
S11308F020307825780A00006C6F61645F62697447
S11309002069732025640A0061637475616C206535
S11309107865637574696F6E206379636C652066AE
S11309206F72204C414331206F7065726174696F3E
S11309306E2077697468206E6F726D616C20433A23
S113094020307825780A00006C6F61642062697435
S11309502069732025640A0061637475616C2065E5
S11309607865637574696F6E206379636C6520665E
S11309706F72204C414331206F7065726174696FEE
S11309806E207769746820424D45206D6163726FF3
S11309903A20307825780A0061637475616C2065AB
S11309A07865637574696F6E206379636C6520661E
S11309B06F72204C415331206F7065726174696F9E
S11309C06E2077697468206E6F726D616C20433A93
S11309D020307825780A000061637475616C2065A5
S11309E07865637574696F6E206379636C652066DE
S11309F06F72204C415331206F7065726174696F5E
S1130A006E207769746820626D65206D6163726F12
S1130A103A20307825780A006578747261637465C9
S1130A206420646174612069732025640A000000F5
S1130A3061637475616C20657865637574696F6E44
S1130A40206379636C6520666F7220554246582096
S1130A506F7065726174696F6E2077697468206E57
S1130A606F726D616C20433A20307825780A00005B
S1130A7061637475616C20657865637574696F6E04
S1130A80206379636C6520666F7220554246582056
S1130A906F7065726174696F6E2077697468206223
S1130AA06D65206D6163726F3A20307825780A0095
S1130AB010B50C001168012902D0022904D008E005
S1130AC0C0B25168884704E0916808709068401C7F
S1130AD090602068401C206010BDF0B51D0000230C
S1130AE000240370461C002A0F6814D0002F14D071
S1130AF03800290000F054FA010068433A1A02D57C
S1130B00D243313200E030320F003270761C641C64
S1130B10002F18D0ECE7002F03D1302030700124CF
S1130B2011E03800290000F04FFA01006943791AF6
S1130B300A2901D2303100E0373107003170761CC8
S1130B40641C002FEDD12000F0BDF1B590B017006A
S1130B5000200090049106E0109A6946FFF7A8FF70
S1130B600498401C049004980078002800D1A6E161
S1130B7025280AD00A28EFD1109A69460D20FFF7DC
S1130B8097FF109A69460A20E8E7002502E028004A
S1130B90102505430498401C0490007820280ED0AA
S1130BA02328F4D02B2807D02D2802D0302809D0B0
S1130BB00BE028000125ECE728000225E9E72800DE
S1130BC00425E6E728000825E3E70499491E0026E2
S1130BD004E0B200921952008618303E491C08788D
S1130BE00200303A092AF4D92E2804D1491C087885
S1130BF030380928FAD908784C2804D0682802D05B
S1130C006C2800D0491E491C04910878582867D0E4
S1130C10622800D1C5E0632800D113E1642813D011
S1130C20692811D06E2800D144E16F2800D1B3E0C7
S1130C30702800D1BAE0732800D107E1752800D1EB
S1130C40B9E078284CD087E7386806903F1D0A231E
S1130C50012206A907A8FFF740FF040007A800190E
S1130C6005900698002801D52D2006E0A80701D597
S1130C702B2002E0680703D520200190641C01E0CA
S1130C8000200190280713D50198002803D0109A5A
S1130C906946FFF70DFFB44201DB3400B6E0109A59
S1130CA069463020FFF704FF641CB442F5DAF6E726
S1130CB0E8070CD40294B44209DA109A6946202059
S1130CC0FFF7F6FE0298401C0290B042F5DB019853
S1130CD0002800D19AE0109A6946FFF7E9FE95E0F2
S1130CE0386803903F1D1023002203A907A8FFF7CB
S1130CF0F4FE040007A800190590002002902807BC
S1130D0019D5E8060BD5109A69463020FFF7D0FEB6
S1130D10109A69467820FFF7CBFE01200290B44276
S1130D2007DA109A69463020FFF7C2FE641CB44209
S1130D30F7DB34001FE0E8071DD4E80600D5A41C47
S1130D400194B44209DA109A69462020FFF7B0FEF4
S1130D500198401C0190B042F5DBE8060BD5109ACF
S1130D6069463020FFF7A4FE109A69467820FFF701
S1130D709FFE01200290E80648D50298002845D13C
S1130D80109A69463020FFF793FE109A694678203E
S1130D90FFF78EFEA41C39E0386803903F1D08233A
S1130DA00DE0386803903F1D022308E03868039083
S1130DB03F1D102303E0386803903F1D0A230022DF
S1130DC003A907A8FFF789FE040007A800190590E6
S1130DD028070CD5B44200DB5FE7109A694630203F
S1130DE0FFF766FE641CB44200DB56E7F5E7E8074C
S1130DF00CD40194B44209DA109A69462020FFF712
S1130E0057FE0198401C0190B042F5DB059800782C
S1130E10002807D0109A6946FFF74AFE0598401E3D
S1130E200590F3E7E80700D49AE6B44200DB97E6BE
S1130E30109A69462020FFF73BFE641CB44200DB95
S1130E408EE6F5E73868C0B23F1D85E63868029043
S1130E503F1D002800D183E600F0CDF80400E80728
S1130E600CD40194B44209DA109A69462020FFF7A1
S1130E701FFE0198401C0190B042F5DB02980078F7
S1130E80002807D0109A6946FFF712FE0298401C0A
S1130E900290F3E7E80700D462E6B44200DB5FE6C1
S1130EA0109A69462020FFF703FE641CB44200DB5D
S1130EB056E6F5E738683F1D0099016050E6009852
S1130EC011B0F0BD0EB400B584B001210091054904
S1130ED0019105AA01006846FFF737FE049908B09E
S1130EE008470000891F0000104800218160104954
S1130EF041600521016070470C480168012291435B
S1130F000160704738B50B48016804680A4D081B36
S1130F10286000BF09A0FFF7D5FF21000EA0FFF74E
S1130F20D1FF296813A0FFF7CDFF31BD10E000E029
S1130F30FFFFFF0018E000E024F4FF1F73797374CF
S1130F4069636B2073746172742076616C75653AA1
S1130F5020307825780A00007379737469636B20F4
S1130F60656E642076616C75653A20307825780A60
S1130F70000000007379737469636B206375727287
S1130F80656E742076616C75652072656164206F8E
S1130F90766572686561643A20307825780A0000C5
S1130FA0CA0F00D0494203105A400DD004B500D3F3
S1130FB0404200F009F8009AD20701D34942124294
S1130FC000D5404204BD0000094210D088420BD332
S1130FD00122002300185B418B4200D35B1A52416B
S1130FE0F8D319001000704701000020704708B5BD
S1130FF000F00CF808BD01000020002902D1704760
S1131000491C401C0A78002AFAD17047704738B44A
S1131010012100220368001D002B0BD00468001D71
S11310200C4202D04D466D1E64192260241D1B1F04
S1131030F0D0FAE732BC7047A3480021016000F009
S113104099FA00F0CDFA00BFA8A0FFF73BFF00F02B
S113105043FB00F003F8FFF7E7F9FEE770B5072656
S11310609A4C2068000F304006D0022808D005D3DF
S1131070042809D006D309E09EA008E09FA006E05A
S1131080A0A004E0A1A002E0A2A000E0A3A0FFF7BA
S113109019FF2068000E3040042802D0052802D031
S11310A003E08BA003E08BA001E000BFA5A0FFF745
S11310B009FF0F252068284008281BD801A1095CD6
S11310C08F4400BF0A101430181C22302A0000BFBD
S11310D0A7A010E0AAA00EE0ADA00CE0AFA00AE02B
S11310E0B1A0FFF7EFFE00BFB2A0FFF7EBFE00BF19
S11310F0B3A000E0B6A0FFF7E5FE2068000D304085
S1131100012801D1BDA000E0C6A0FFF7DBFE2068E6
S1131110000C0640072E17D801A0805D874400BF4D
S1131120080C1014181C2024C9A00EE0CDA00CE05B
S1131130D1A00AE0D5A008E0D9A006E0DDA004E033
S1131140E1A002E0E5A000E06348FFF7BBFE0F2149
S11311506248FFF7B7FE00F08BF8A06A000E054066
S11311600CD0012D0CD0032D0CD0052D0CD0072D47
S11311700ED0092D0AD00F2D0AD00BE0DCA00AE016
S1131180574808E0574806E004A004E012A002E033
S113119020A000E02EA0FFF795FE70BD466C6173A1
S11311A0682073697A653A20203634204B422070D7
S11311B0726F6772616D20666C6173682C203220D7
S11311C04B422070726F74656374696F6E20726530
S11311D067696F6E09000000466C6173682073696B
S11311E07A653A2020323536204B422070726F6780
S11311F072616D20666C6173682C2034204B422030
S113120070726F74656374696F6E20726567696F5D
S11312106E090000466C6173682073697A653A2030
S113122020313238204B422070726F6772616D201A
S1131230666C6173682C2034204B422070726F748A
S1131240656374696F6E20726567696F6E0900006B
S1131250455252212120556E646566696E6564208D
S1131260666C6173682073697A650A0D000000007A
S1131270F8B51D4C0320E0710026A6716671267135
S11312800127E7738025257020782842FCD0207A36
S11312900090637AA27AE17AA4A0FFF713FE0320F8
S11312A0E071A671667104202071E77325702078BF
S11312B02842FCD0207A0090637AA27AE17A00BFB7
S11312C0A4A0FFF7FFFDF1BD008104402480044089
S11312D03400000035000000201E00003C1E000009
S11312E0501E00008C1E0000000002400A0D0A0D72
S11312F0000000000A0D4B4C300000000A0D4B4C5E
S1131300310000000A0D4B4C320000000A0D4B4C1A
S1131310330000000A0D4B4C340000000A0D556EDA
S11313207265636F676E697A6564204B696E657474
S113133069732066616D696C79206465766963659B
S11313402E0A0D000A0D556E7265636F676E697A19
S11313506564204B696E65746973207375622D66CC
S1131360616D696C79206465766963652E0A0D0088
S1131370313670696E2020202020202000000000DB
S1131380323470696E2020202020202000000000CC
S1131390333270696E202020202020003438706998
S11313A06E20202020202000363470696E202020FA
S11313B020202000383070696E202020202020005A
S11313C031303070696E2020202020200000000081
S11313D00A0D556E7265636F676E697A6564204B9A
S11313E0696E65746973207061636B6167652063FE
S11313F06F64652E20202020202000000A0D4C6FF1
S11314007720506F776572204C696E652077697418
S11314106820436F72746578204D302B0A0D0A0DD5
S1131420000000000A0D556E7265636F676E697A7D
S11314306564204B696E657469732066616D696CBF
S113144079206174747269627574652E0A0D0000E6
S11314505352414D2053697A653A20302E35204B42
S1131460420A0D005352414D2053697A653A2020B7
S113147031204B420A0D00005352414D2053697AEA
S1131480653A202032204B420A0D00005352414D50
S11314902053697A653A202034204B420A0D00001B
S11314A05352414D2053697A653A202038204B42EB
S11314B00A0D00005352414D2053697A653A2020A9
S11314C03136204B420A0D005352414D2053697A64
S11314D0653A20203332204B420A0D005352414DCD
S11314E02053697A653A20203634204B420A0D0095
S11314F0466C6173682073697A653A202038204B02
S1131500422070726F6772616D20666C6173682C23
S113151020302E3235204B422070726F7465637414
S1131520696F6E20726567696F6E0000466C617347
S11315306820706172616D6574657220766572737E
S1131540696F6E2025642E25642E25642E25640A79
S11315500D000000466C6173682076657273696FD4
S11315606E2049442025642E25642E25642E25648E
S11315700A0D000010B51049104C8C4204D0822290
S1131580D200200000F030FA200000F047FA0C49A5
S11315900C48421A02D00C4800F012FA0B480C49CD
S11315A0091A01D000F09CFA0A490B48421A02D0E9
S11315B00A4800F005FA10BD0000000000F0FF1F0B
S11315C000000000000000000000000010F4FF1FF5
S11315D028F4FF1F000000000000000028F4FF1F93
S11315E0F0B583B0344C606BF82189010143616329
S11315F0082032490A78024202D00A78104308705F
S113160000F050F88026760226640120019018200C
S11316100090042301220021294800F065FA294D95
S11316202860FF2800DCFEE72068064326602E6859
S1131630FA27BF00F00F801940103900FFF7B0FC03
S1131640286130003900FFF7ABFC6860216C090F9A
S1131650491CFFF7B9FCA860216C4903490F491CD8
S1131660FFF7B2FCE86000F010F81748410D016084
S1131670416020684904014321609622D20129690E
S1131680124800F04FFB03B0F0BD80B51048810D47
S113169001600168902212030A4302601E2000F0D8
S11316A0C1F901BD0B48A021C900016002480168CD
S11316B040220A43026070470480044002D007407D
S11316C000127A0010F4FF1F0490044000A00640AA
S11316D0109004400CB00440F8B5484C6078800683
S11316E003D500BF47A0FFF7EDFB08276078384219
S11316F003D000BF4CA0FFF7E5FB04256078284227
S113170003D000BF4CA0FFF7DDFB02266078304217
S113171003D000BF4DA0FFF7D5FB2078000602D50B
S113172051A0FFF7CFFB2078400602D553A0FFF766
S1131730C9FB2078800602D556A0FFF7C3FB2078AA
S1131740284202D059A0FFF7BDFB2078384202D0CE
S11317505EA0FFF7B7FB2078304202D062A0FFF70B
S1131760B1FB2078C0073AD566A0FFF7ABFB07258D
S1131770234E30782840032803D100BF6DA0FFF723
S1131780A1FB30782840042805D17078284202D182
S11317906BA0FFF797FB30782840042807D17078B6
S11317A02840012803D100BF68A0FFF78BFB3078E5
S11317B02840042807D170782840022803D100BFAC
S11317C065A0FFF77FFB30782840042807D17078A4
S11317D00540032D03D100BF62A0FFF773FB2078FF
S11317E000280AD16078002807D1217860A0FFF78B
S11317F069FB617868A0FFF765FBF1BD00F0074065
S113180001E007400A0D53746F70204D6F6465202A
S113181041636B6E6F776C65646765204572726FA8
S113182072205265736574000A0D4D444D2D41506C
S113183020526573657400000A0D536F66747761F6
S11318407265205265736574000000000A0D436FD1
S11318507265204C6F636B7570204576656E7420DD
S113186052657365740000000A0D506F7765722D20
S11318706F6E205265736574000000000A0D457890
S11318807465726E616C2050696E20526573657464
S1131890000000000A0D5761746368646F67284391
S11318A04F50292052657365740000000A0D4C6F77
S11318B07373206F662045787465726E616C204383
S11318C06C6F636B20526573657400000A0D4C6F76
S11318D07373206F66204C6F636B20696E20504CCD
S11318E04C205265736574000A0D4C6F772D766F2A
S11318F06C74616765204465746563742052657314
S1131900657400000A0D5B6F75745352535D576123
S11319106B65757020626974207365742066726FDC
S11319206D206C6F7720706F776572206D6F6465C2
S1131930200000004C4C532065786974200000009E
S1131940564C4C533020657869742000564C4C53E7
S11319503120657869742000564C4C5332206578E8
S113196069740000564C4C53332065786974200028
S11319705B6F75745352535D52434D5F53525330F2
S1131980206973205A45524F2020203D20252330C2
S11319903258200D0A0D00005B6F75745352535D6D
S11319A052434D5F53525331206973205A45524F6D
S11319B02020203D202523303258200D0A0D000020
S11319C0124207D08B0706D00B78491C0370401CC9
S11319D0521EF7D87047830706D00B78491C037052
S11319E0401C521EF9D1704770B4103A03D378C921
S11319F0103A78C0FBD2530701D318C918C001D5D7
S1131A0008C908C0D20704D30B880380891C801C32
S1131A10002A01D50B78037070BC70470E4908602A
S1131A207047000080B5212804DB00BF0DA0FFF73C
S1131A3049FA01BD01210211D20E121852115201AC
S1131A40801A8140054802680A430260044802681B
S1131A501143016001BD000008ED00E080E200E0F8
S1131A6000E100E00A4552522120496E76616C691A
S1131A7064204952512076616C75652070617373DE
S1131A80656420746F20656E61626C652069727193
S1131A902066756E6374696F6E210A00094205D071
S1131AA0830705D00270401C491EF9D1704700001D
S1131AB0130030B414001500103902D310393CC09F
S1131AC0FCD2490700D30CC000D504C0890002D35E
S1131AD00280801C002900D5027030BC70470000D1
S1131AE00022DBE70022E3E7F6B504000F0019004B
S1131AF07D4D0326A8798008304005D1A879C00619
S1131B0002D5A879800601D50120F6BD7748844224
S1131B1001DB2120F6BD002A06D075482018754A3D
S1131B20904201D32220F6BD002F00D00127481E89
S1131B306A46507068464078192801D34120F6BDA2
S1131B406846079A02776A461C20105618381070A7
S1131B50684600781B2801D34220F6BD2000FFF719
S1131B601FFA65494118654A914201D34320F6BDE5
S1131B706A461C21515648436149401861498842CC
S1131B8001D34520F6BD6978C32008406946097928
S1131B908900FA005C4B9C4202DA1143102201E0F6
S1131BA0114320220A4302436A705848844201DAEE
S1131BB0002014E05648844201DA01200FE0554821
S1131BC0844201DA02200AE05348844201DA032005
S1131BD005E05248844201DA042000E00520297817
S1131BE003220A40C0001043802101432970684643
S1131BF0007900280CD04A4902200223AA791A420B
S1131C0001D1491EFAD1A979014201D12320F6BD9F
S1131C10FA20C000A979C90601D5401EFAD1A879D5
S1131C20C00601D51120F6BDFA20C000A9798908A3
S1131C303140022901D0401EF8D1A87980083040F3
S1131C40022801D01A20F6BD687920210143697168
S1131C5028791F27E02108406A4652783A40024317
S1131C602A716A79402011406A4612783A400A4340
S1131C7002436A71FA21C900AA79920601D4491E65
S1131C80FAD1A979890601D41620F6BDFA210901F1
S1131C90AA79024201D1491EFAD1A979014201D19E
S1131CA04420F6BD29793940491C68790740183722
S1131CB028788006800E2870FA20C000AA7992083D
S1131CC03240032A01D0401EF8D1A879800806408A
S1131CD0032E01D01B20F6BD2000C9B2FFF760F926
S1131CE0FFB27843F6BD00000040064081F0FA02DE
S1131CF04039D2FF4181BA01807BE1FF81841E001B
S1131D00009423FD0175190301127A00D112130006
S1131D10A1252600414B4C0081969800012D3101EC
S1131D20204E0000FCB53648036B040D1C430463CD
S1131D30344DEB78F3241C40EC700B00203B324C08
S1131D40A34204D30168314A0A400260FEE714004A
S1131D50FA208000414300910846A100FFF734F9BE
S1131D6081000098FFF730F9844201D2001B00E0A3
S1131D70201A019004270526009821007143FFF7DB
S1131D8023F9010071430098FFF71EF9844201D240
S1131D90001B00E0201A0199814201D30190370011
S1131DA0761C212EE8DB20006421FFF70DF94100A9
S1131DB008180199814221D2381F052803D2E87AF4
S1131DC002210143E972A87A1F26B043791E3140EB
S1131DD00143A97200983140491C4C432100FFF78C
S1131DE0F3F82978E0220A40010A0E4016432E70C7
S1131DF06870E8780C210143E970F3BDFEE7000048
S1131E000480044000A0064031C30000FFFFFFF33C
S1131E1000BF802203791342FCD0C17170470000D7
S1131E200A0D556E7265636F676E697A6564205337
S1131E3052414D2053697A652E0A0D0053696C692D
S1131E40636F6E207265762025640A0D2000000001
S1131E50466C6173682073697A653A2020313620B4
S1131E604B422070726F6772616D20666C6173689B
S1131E702C20302E35204B422070726F74656374B1
S1131E80696F6E20726567696F6E0900466C6173D5
S1131E90682073697A653A20203332204B422070DF
S1131EA0726F6772616D20666C6173682C203120DB
S1131EB04B422070726F74656374696F6E20726533
S1131EC067696F6E0900000080B50348016800BFB0
S1131ED002A0FEF7F7FF01BD04ED00E00A2A2A2A5A
S1131EE02A64656661756C745F69737220656E74CB
S1131EF065726564206F6E20766563746F72202549
S1131F00642A2A2A2A2A0D0A0A00000010B5074961
S1131F1079441831064C7C44163404E0081D0A68E0
S1131F20891888470100A142F8D110BD08000000BB
S1131F3014000000DBF0FFFF1800000010F4FF1F86
S1131F400000000000F009F8002801D0FFF7DEFFD0
S1131F500020FEF769FA00F002F80120704780B50E
S1131F6000F002F801BD00000746384600F002F810
S1131F70FBE70000C046C046024A11001820ABBE71
S1131F80FBE700BF2600020080B501000148FFF70F
S1131F903FFF01BD00A00640C046C046C046C04643
S1071FA0FFF7D0FF74
S9031F9944
