S0180000706C6174696E756D5F66726565646F6D2E7372656361
S1130000F82F002011040000391A0000391A0000EA
S1130010391A0000391A0000391A0000391A000090
S1130020391A0000391A0000391A0000391A000080
S1130030391A0000391A0000391A0000391A000070
S1130040391A0000391A0000391A0000391A000060
S1130400FFFFFFFFFFFFFFFFFFFFFFFFFEFFFFFFF9
S113041000200021002200230024002500260027BC
S113042062B600F0AFFAFEE710B50C0011680129BE
S113043002D0022904D009E0C0B25168884705E01F
S1130440916808709068401C9060FFE72068401C29
S1130450206010BDF0B51C000026050000202870A7
S11304606D1C002A1CD00F68002F09D13020287081
S1130470761C3000F0BD30320F002A706D1C761CE3
S1130480002FF6D03800210000F02CFA01000800FB
S113049060433A1A002AEED5D04302003132EBE72A
S11304A00F68002F08D130202870761CE1E737311F
S11304B0070029706D1C761C002FDAD0380021004B
S11304C000F024FA01006143791A0A29EFD230318D
S11304D0EEE7F8B50F0015001E00040005E0320039
S11304E029003020FFF7A0FF641CBC42F7DBF1BDFC
S11304F0F8B50F0015001E00040005E032002900C5
S11305002020FFF791FF641CBC42F7DBF1BDF1B57D
S113051090B01700002000900E0005E0109A694684
S11305201800FFF781FF761C3378002B00D1C4E15B
S1130530252B12D00A2B05D0109A69461800FFF714
S113054073FF09E0109A69460D20FFF76DFF109ABA
S113055069460A20FFF768FFE5E70025002102E06D
S113056028000125054300291FD1761C3078202856
S11305700CD0232812D02B2804D02D28F0D03028DA
S113058008D00FE0280002250543ECE728000425E5
S11305900543E8E7280008250543E4E7280010257B
S11305A00543E0E7761E0121DDE7002002900021EB
S11305B005E002980A225043C018303802900029FE
S11305C008D1761C3378180030380928F1D9761E02
S11305D00121F4E7761C30782E280BD10021FFE7A7
S11305E0002908D1761C307830380928F8D9761ECD
S11305F00121F5E7761E761C30784C2806D0682851
S113060002D06C2801D002E002E001E000E0761E96
S1130610761C33781800582871D0622800D1CAE0BB
S1130620632800D113E1642813D0692811D06E28FF
S113063000D13DE16F2800D1B2E0702800D1C5E0BF
S1130640732800D10BE1752800D1CAE0782856D070
S113065064E7386806903F1D0A23012206A907A80B
S1130660FFF7F8FE040007A8001905900698002873
S113067003D52D200190641C0DE0A80703D52B2081
S11306800190641C07E0680703D520200190641CD6
S113069001E00020019000200490280711D5019862
S11306A0002804D0109A69460198FFF7BDFE012086
S11306B00490109B6A4602992000FFF70AFF029CEF
S11306C011E0E8070FD4109B6A4602992000FFF757
S11306D00FFF0198002804D0109A69460198FFF78B
S11306E0A3FE012004900498002807D10198002853
S11306F004D0109A69460198FFF796FE9AE038688C
S113070003903F1D1023002203A907A8FFF7A2FEB0
S1130710040007A80019059000200490280715D5A7
S1130720E8060BD5109A69463020FFF77DFE109A33
S113073069467820FFF778FE01200490109B6A46F2
S113074002992000FFF7C5FE029C18E0E80716D4C2
S1130750E80600D5A41C109B6A4602992000FFF706
S1130760C7FEE8060BD5109A69463020FFF75CFEF9
S1130770109A69467820FFF757FE01200490E80696
S11307800DD5049800280AD1109A69463020FFF745
S11307904BFE109A69467820FFF746FEA41C49E0F8
S11307A0386803903F1D0823002203A907A8FFF718
S11307B051FE04001FE0386803903F1D022300220D
S11307C003A907A8FFF746FE040014E03868039065
S11307D03F1D1023002203A907A8FFF73BFE0400D6
S11307E009E0386803903F1D0A23002203A907A8E3
S11307F0FFF730FE040007A800190590280707D565
S1130800109B6A4602992000FFF763FE029C11E0E8
S1130810E8070FD4109B6A4602992000FFF768FE90
S113082008E0109A694605980078FFF7FDFD0598E1
S1130830401E0590059800780028F2D1E80705D5F8
S1130840109B6A4602992000FFF752FE6BE6386857
S1130850C0B23F1D109A6946FFF7E6FD63E63868AB
S113086001903F1D0198002821D0019800F065F8FF
S11308700400E8070FD4109B6A4602992000FFF792
S113088037FE08E0109A694601980078FFF7CCFD1E
S11308900198401C0190019800780028F2D1E807E3
S11308A005D5109B6A4602992000FFF721FE3AE61F
S11308B038683F1D0099016035E6009811B0F0BD1D
S11308C00EB400B584B0012100910549019105AA37
S11308D001006846FFF71BFE049908B008470000B2
S11308E05B150000CA0F00D0494203105A400DD0D6
S11308F004B500D3404200F009F8009AD20701D3AE
S11309004942124200D5404204BD0000094210D0C1
S113091088420BD30122002300185B418B4200D391
S11309205B1A5241F8D319001000704701000020EF
S1130930704708B500F010F808BD00B501000020AC
S1130940002902D1002006E0401C0A001100491CC5
S11309501278002AF8D100BD704738B40121002272
S11309600368001D002B0BD00468001D0C4202D04C
S11309704D466D1E64192260241D1B1FF0D0FAE73A
S113098032BC70477D480021016000F0ADF900F0F1
S1130990F9F97B48FFF794FF00F0A0FA00F003F8A0
S11309A000F078FBFEE780B576480068000F40074A
S11309B0400F002806D002280CD007D3042811D0F9
S11309C00CD313E07048FFF77BFF12E06F48FFF78A
S11309D077FF0EE06E48FFF773FF0AE06D48FFF7FC
S11309E06FFF06E06C48FFF76BFF02E06B48FFF710
S11309F067FF64480068000E4007400F042802D0D7
S1130A00052804D007E066A0FFF75AFF06E065A0BA
S1130A10FFF756FF02E06448FFF752FF59480068A9
S1130A200007000F00280CD001280ED0022810D097
S1130A30042812D0052814D0062815D0082816D06A
S1130A4019E08148FFF73CFF18E08048FFF738FFC2
S1130A5014E07F48FFF734FF10E07E48FFF730FFD3
S1130A600CE07D48FFF72CFF7C48FFF729FF7C480A
S1130A70FFF726FF02E07B48FFF722FF41480068AA
S1130A80000D4007400F012803D17748FFF718FFF6
S1130A9002E07648FFF714FF3A480068000C40076C
S1130AA0400F00280BD0022811D00CD3042816D0F4
S1130AB011D306281BD016D307281CD01FE06C487E
S1130AC0FFF7FEFE1EE06B48FFF7FAFE1AE06A48E5
S1130AD0FFF7F6FE16E06948FFF7F2FE12E06848F9
S1130AE0FFF7EEFE0EE06748FFF7EAFE0AE066480D
S1130AF0FFF7E6FE06E06548FFF7E2FE02E0644821
S1130B00FFF7DEFE0F2189B26248FFF7D9FE00F03D
S1130B104DF861480068000E0007000F00280CD053
S1130B2001280ED0032810D0052812D0072814D08D
S1130B30092816D00F2818D01BE05848FFF7C0FE2C
S1130B401AE05748FFF7BCFE16E05648FFF7B8FE18
S1130B5012E05548FFF7B4FE0EE05448FFF7B0FE2C
S1130B600AE05348FFF7ACFE06E05048FFF7A8FE42
S1130B7002E05048FFF7A4FE01BD000000810440DC
S1130B80281C000024800440301C0000381C000095
S1130B90401C0000481C0000501C000040180000CD
S1130BA034000000350000006C17000080B5424896
S1130BB00321017041480021017041480021017066
S1130BC04048002101704048012101703F488021C4
S1130BD001703E4800780006FBD53D480078C0B25D
S1130BE000903C480378DBB23B480278D2B23B48E1
S1130BF00178C9B23A48FFF763FE2F480321017018
S1130C002E48002101702E48002101702D48042136
S1130C1001702D48012101702C48802101702B485E
S1130C2000780006FBD52A480078C0B20090294815
S1130C300378DBB228480278D2B228480178C9B2D6
S1130C402848FFF73DFE01BD801B0000901B0000FB
S1130C50EC1B0000F81B0000041C0000101C00002A
S1130C60A01B00009817000068180000C4170000BB
S1130C70BC1A0000D01A0000E41A0000F81A0000A0
S1130C800C1B0000201B0000341B0000481B00004C
S1130C90EC1900005C1B00004C8004406C15000043
S1130CA0A8150000E4150000201600005C160000E2
S1130CB09816000058190000070002400600024080
S1130CC005000240040002400F0002400000024000
S1130CD008000240090002400A0002400B000240E2
S1130CE0901800007819000010B51C481C4988426F
S1130CF00ED0002008E004214143184A0423434352
S1130D00174CE3585350401C822149008842F2D3C7
S1130D101449154A1548801A03E013780B70521CC5
S1130D20491C0300581E002BF7D111491148401AE1
S1130D3002E000220A70491C0200501E002AF8D169
S1130D400D490E4A0E48801A03E013780B70521CAA
S1130D50491C0300581E002BF7D110BD00F0FF1FE3
S1130D60000000000000000000000000000000007F
S1130D7010F4FF1F24F4FF1F24F4FF1F00000000E1
S1130D800000000000B583B045480068F8218901DF
S1130D9001434348016043480078000705D54148B2
S1130DA00078082101433F48017000F06EF83E4886
S1130DB08021490201600120019018200090042341
S1130DC001220021394800F071F939490860384896
S1130DD00068FF2800DCFEE73648006880214902ED
S1130DE0014334480160324800680221FFF77AFD6C
S1130DF0FA218900FFF776FD2F4908602C48006826
S1130E00FA218900FFF76EFD2C4908602B48006821
S1130E1025490968090F491CFFF778FD284908602E
S1130E202748006820490968090C4907490F491CEB
S1130E30FFF76CFD2349086000F017F82248802171
S1130E4089000160214880218900016019480068F7
S1130E508021C904014317480160E1225202164867
S1130E6001681B4800F09AFA07BD80B51948802133
S1130E70490001601748006890210903014315489F
S1130E8001601E2000F03EFB01BD1348A021C900F3
S1130E90016008480068402101430648016070472A
S1130EA03880044002D007404480044000127A0095
S1130EB010F4FF1F0480044020F4FF1F14F4FF1FEC
S1130EC018F4FF1F1CF4FF1F049004400890044012
S1130ED000A00640109004400CB0044080B5574870
S1130EE00078800602D55648FFF7EAFC534800789C
S1130EF0000702D55348FFF7E3FC50480078400749
S1130F0002D55148FFF7DCFC4C480078800702D535
S1130F104E48FFF7D5FC4E480078000602D54D48F0
S1130F20FFF7CEFC4A480078400602D54A48FFF74E
S1130F30C7FC47480078800602D54848FFF7C0FC44
S1130F4043480078400702D54548FFF7B9FC4048BC
S1130F500078000702D54348FFF7B2FC3C4800780C
S1130F60800702D54048FFF7ABFC39480078C0073A
S1130F704DD53E48FFF7A4FC3D480078C0B2400779
S1130F80400F032802D13B48FFF79AFC3848007809
S1130F90C0B24007400F042806D137480078400704
S1130FA002D13648FFF78CFC31480078C0B24007C4
S1130FB0400F042809D130480078C0B24007400FE0
S1130FC0012802D12E48FFF77BFC29480078C0B2E3
S1130FD04007400F042809D127480078C0B24007D1
S1130FE0400F022802D12748FFF76AFC2048007806
S1130FF0C0B24007400F042809D11F480078C0B28E
S11310004007400F032802D11F48FFF759FC10483E
S11310100078C0B2002810D108480078C0B2002877
S11310200BD10B480178C9B21848FFF749FC0348B3
S11310300178C9B21648FFF743FC01BD01F007402F
S113104004190000701B0000941A00009819000095
S113105000F00740A81A0000081A0000201A000037
S113106038190000B4190000D01900000C17000052
S113107001E00740B01B000002E00740BC1B000079
S1131080C81B0000D41B0000E01B0000F017000088
S1131090181800000448FFF713FC00F059FAC0B216
S11310A000F05BFAF9E700BFE0180000F4B50400B3
S11310B00D001E00A6480078C0B280088007800F8B
S11310C0002807D1A2480078C00603D5A0480078BC
S11310D0800601D5012039E19E48844201DB2120AC
S11310E034E168460078002806D09B48201A9B49C2
S11310F0884201D3222029E1EDB2012D00D301253C
S11311003000401EC0B2192801D341201EE16946B7
S113111018200F5638001838C0B21B2801D34220BB
S113112014E1200076B23100FFF7DCFB8C49401A51
S11311308C49884201D3432008E1200076B2310073
S1131140FFF7D0FB7FB278438749401A874988422A
S113115001D34520FAE0864800780100C320084006
S113116084498C420ADA0100EDB2E8006A4612783A
S11311709200024310201043084309E00100EDB23D
S1131180E8006A4612789200024320201043084384
S1131190774908707848844201DA002114E07748DE
S11311A0844201DA01210FE07548844201DA022108
S11311B00AE07448844201DA032105E0724884425B
S11311C001DA042100E00521704800788007800FCF
S11311D00200C800382101408020084310436B49B5
S11311E0087068460078002810D0002000E0401CF9
S11311F0674900B2884203DA554909788907F6D568
S113120053480078800701D423209FE0002000E0A9
S1131210401CFA21C90000B2884203DA4C4909781B
S1131220C906F5D44A480078C00601D511208DE0DE
S1131230002000E0401CFA21C90000B2884207DA0D
S113124043490978C9B289088907890F0229F1D16C
S11312503F480078C0B280088007800F022801D080
S11312601A2073E04B48007820210143494801705B
S1131270494800780100E02008400100701EC006C3
S1131280C00E084344490870424800780100E02039
S113129008400200183FF906C90E402008431043D5
S11312A03C490870002000E0401CFA21C90000B24B
S11312B0884203DA264909788906F5D52448007856
S11312C0800601D4162041E0002000E0401CFA21F1
S11312D0090100B2884203DA1D4909784906F5D5A7
S11312E01B480078400601D444202FE02A480078A7
S11312F0C106C90E491C27480078C506ED0E1835ED
S1131300224800788006800E204A1070002000E0F9
S1131310401CFA22D20000B2904207DA0C4A12783A
S1131320D2B292089207920F032AF1D108480078AA
S1131330C0B280088007800F032801D01B2005E07D
S11313402000C9B2FFF7CEFAEDB26843F2BD000047
S11313500640064081F0FA02C0C62D004181BA0160
S113136080841E0081841E00006CDC020175190358
S11313700140064001127A00D1121300A125260073
S1131380414B4C0081969800012D310100400640EC
S1131390204E00000540064004400640F6B50020FB
S11313A00026002700220023474C25688024E400FF
S11313B02C43454D2C60454C2578F3242C40434D5B
S11313C02C700C00203C424DAC4208D30021414813
S11313D002681000404A02403E480260FEE7019C59
S11313E0FA20800041430091042500982100EDB2C9
S11313F06943FFF78BFA01000098EDB26943FFF7E8
S113140085FA844201D2061B00E0261AEDB22F00B1
S1131410052506E0231A9E4202D31E00EDB22F00DA
S11314206D1CEDB2212D0FD200982100EDB269435D
S1131430FFF76CFA01000098EDB26943FFF766FA12
S11314408442E7D2031BE6E720006421FFF75EFA3B
S113145003214843864235D23800001F052805D2AF
S11314601E480078022101431C4801701C48027880
S1131470D2B21F2082431100781EC0B2C206D20E1F
S11314800A43174811000170D206D20E521C00986C
S113149054432100FFF73AFA010012480278D2B20D
S11314A01F2082430800000AC006C00E10430D4AE4
S11314B010700D480170054800780C210143034861
S11314C00170F3BDFEE700003480044003A0064031
S11314D031C3000004800440FFFFFFF30BA006406B
S11314E00AA0064000A0064001A0064000B501790C
S11314F08906FCD5C07900BD00B502791206FCD579
S1131500C17100BD70B50400212C03DB0D48FFF749
S1131510D7F915E00C480568012620002021FFF7C3
S1131520E1F98E402E430848066008480568012604
S113153020002021FFF7D6F98E402E430348066091
S113154070BD0000D416000080E200E000E100E07D
S113155080B50548FFF7CAFF02BD80B50100C9B2D6
S11315600148FFF7C9FF01BD00A00640466C617346
S1131570682073697A653A202038204B42207072C3
S11315806F6772616D20666C6173682C20302E3237
S113159035204B422070726F74656374696F6E20DE
S11315A0726567696F6E0000466C617368207369C9
S11315B07A653A20203136204B422070726F677270
S11315C0616D20666C6173682C20302E35204B428F
S11315D02070726F74656374696F6E2072656769D9
S11315E06F6E0900466C6173682073697A653A20EE
S11315F0203332204B422070726F6772616D206617
S11316006C6173682C2031204B422070726F7465BA
S11316106374696F6E20726567696F6E09000000FC
S1131620466C6173682073697A653A2020363420E9
S11316304B422070726F6772616D20666C617368D3
S11316402C2032204B422070726F74656374696F72
S11316506E20726567696F6E09000000466C6173E5
S1131660682073697A653A2020313238204B422051
S113167070726F6772616D20666C6173682C2034C0
S1131680204B422070726F74656374696F6E2072B0
S11316906567696F6E090000466C61736820736941
S11316A07A653A2020323536204B422070726F67BB
S11316B072616D20666C6173682C2034204B42206B
S11316C070726F74656374696F6E20726567696F99
S11316D06E0900000A4552522120496E76616C69F8
S11316E064204952512076616C7565207061737372
S11316F0656420746F20656E61626C652069727127
S11317002066756E6374696F6E210A000A0D5B6F43
S113171075745352535D57616B65757020626974BB
S1131720207365742066726F6D206C6F7720706F04
S1131730776572206D6F6465200000000A2A2A2AEA
S11317402A64656661756C745F69737220656E7472
S113175065726564206F6E20766563746F722025F0
S1131760642A2A2A2A2A0D0A0A0000000A0D556E44
S11317707265636F676E697A6564204B696E657420
S11317806973207375622D66616D696C7920646577
S1131790766963652E0A0D000A0D556E7265636FD6
S11317A0676E697A6564204B696E6574697320702D
S11317B061636B61676520636F64652E2020202060
S11317C0202000000A0D556E7265636F676E697A9A
S11317D06564204B696E657469732066616D696C1C
S11317E079206174747269627574652E0A0D000043
S11317F05B6F75745352535D52434D5F5352533074
S1131800206973205A45524F2020203D2025233043
S11318103258200D0A0D00005B6F75745352535DEE
S113182052434D5F53525331206973205A45524FEE
S11318302020203D202523303258200D0A0D0000A1
S11318400A0D556E7265636F676E697A6564204B25
S1131850696E657469732066616D696C792064656D
S1131860766963652E0A0D000A0D4C6F7720506F60
S1131870776572204C696E65207769746820436FC0
S113188072746578204D302B0A0D0A0D000000009B
S1131890466C61736820706172616D657465722055
S11318A076657273696F6E2025642E25642E256417
S11318B02E25640A0D00000010B50749794418313B
S11318C0064C7C44163404E0081D0A6889188847CD
S11318D00100A142F8D110BD500000005C000000DE
S11318E00A0D52756E6E696E672074686520706C9F
S11318F06174696E756D2070726F6A6563742E0A07
S11319000D0000000A0D53746F70204D6F64652044
S113191041636B6E6F776C65646765204572726FA7
S1131920722052657365740033F0FFFF14000000E9
S113193010F4FF1F000000000A0D4C6F7373206F3A
S1131940662045787465726E616C20436C6F636BBE
S11319502052657365740000455252212120556E52
S1131960646566696E656420666C6173682073697A
S11319707A650A0D00000000466C61736820766584
S11319807273696F6E2049442025642E25642E25C8
S1131990642E25640A0D00000A0D436F7265204C05
S11319A06F636B7570204576656E74205265736540
S11319B0740000000A0D4C6F7373206F66204C6F27
S11319C0636B20696E20504C4C2052657365740023
S11319D00A0D4C6F772D766F6C74616765204465D2
S11319E07465637420526573657400000A0D556E46
S11319F07265636F676E697A6564205352414D2046
S1131A0053697A652E0A0D000A0D45787465726E65
S1131A10616C2050696E205265736574000000008B
S1131A200A0D5761746368646F6728434F50292017
S1131A30526573657400000080B50348016803486B
S1131A40FEF73EFF01BD000004ED00E03C1700007E
S1131A5000F009F8002801D0FFF72EFF0020FFF75F
S1131A6019FB00F002F80120704780B500F002F87D
S1131A7001BD00000746384600F002F8FBE700000D
S1131A80C046C046024A11001820ABBEFBE700BFA7
S1131A90260002000A0D536F667477617265205246
S1131AA065736574000000000A0D506F7765722D30
S1131AB06F6E205265736574000000005352414DEF
S1131AC02053697A653A20302E35204B420A0D00A6
S1131AD05352414D2053697A653A202031204B42BC
S1131AE00A0D00005352414D2053697A653A202073
S1131AF032204B420A0D00005352414D2053697A63
S1131B00653A202034204B420A0D00005352414DC7
S1131B102053697A653A202038204B420A0D000090
S1131B205352414D2053697A653A20203136204B77
S1131B30420A0D005352414D2053697A653A2020E0
S1131B403332204B420A0D005352414D2053697ADF
S1131B50653A20203634204B420A0D0053696C69E3
S1131B60636F6E207265762025640A0D20000000E4
S1131B700A0D4D444D2D415020526573657400008B
S1131B80313670696E2020202020202000000000C3
S1131B90323470696E2020202020202000000000B4
S1131BA031303070696E2020202020200000000099
S1131BB04C4C53206578697420000000564C4C53FB
S1131BC03020657869742000564C4C533120657878
S1131BD069742000564C4C533220657869740000B7
S1131BE0564C4C5333206578697420003332706945
S1131BF06E20202020202000343870696E202020A0
S1131C0020202000363470696E20202020202000FF
S1131C10383070696E20202020202000C046C04645
S1131C20C046C046FFF714FF0A0D0A0D000000006D
S1131C300A0D4B4C300000000A0D4B4C31000000E3
S1131C400A0D4B4C320000000A0D4B4C33000000CF
S10B1C500A0D4B4C34000000A6
S9031C1DC3
