S01C00006C6F775F706F7765725F64656D6F5F746F7765722E7372656396
S1130000F82F0020110400008D3C00008D610000D9
S11300108D6100008D6100008D6100008D61000024
S11300208D6100008D6100008D6100008D61000014
S11300308D6100008D6100008D610000491C00008D
S11300408D6100008D6100008D6100008D610000F4
S11300508D6100008D6100008D610000193A00007F
S11300608D6100008D6100008D6100008D610000D4
S11300708D6100008D6100008D6100008D610000C4
S11300808D6100008D6100008D6100008D610000B4
S11300908D6100008D6100008D6100008D610000A4
S11300A08D6100008D6100008D6100008D61000094
S11300B0311500008D6100008D1500008D61000078
S11300C0FFFFFFFFFFFFFFFFFFFFFFFFFFFFFFFF3C
S11300D0FFFFFFFFFFFFFFFFFFFFFFFFFFFFFFFF2C
S11300E0FFFFFFFFFFFFFFFFFFFFFFFFFFFFFFFF1C
S11300F0FFFFFFFFFFFFFFFFFFFFFFFFFFFFFFFF0C
S1130400FFFFFFFFFFFFFFFFFFFFFFFFFEFFFFFFF9
S113041000200021002200230024002500260027BC
S113042062B603F07DFDFEE780B507482A2101701E
S113043000F0FCFF012001F045F801F004F862B679
S113044000F004F8002002BD00E0074070B5FF246E
S1130450C04801F08BFEC04801F088FEBF4AC04985
S1130460C04801F083FEC04801F080FE0BE0BF48A5
S113047001F07CFEBE48E021C9000160BD48E021D6
S1130480C9000160FF24B8E0BB480078C0B2400650
S1130490400E012802D1B94801F068FE02F00CFFB9
S11304A00500EDB2012D04D1C0480168C04801F037
S11304B05DFEEDB2022D04D1BC480168BD4801F0D7
S11304C055FEEDB2032D04D1B8480168BA4801F0D5
S11304D04DFEEDB2042D04D1B4480168B74801F0D3
S11304E045FEEDB2052D04D1B0480168B44801F0D1
S11304F03DFEEDB2062D04D1AC480168B14801F0CF
S113050035FEEDB2072D04D1A8480168AE4801F0CC
S11305102DFEEDB2082D04D1A4480168CA4801F0AB
S113052025FECA4801F022FEC94801F01FFEC94851
S113053001F01CFEC84801F019FEC84801F016FE7F
S1130540C74801F013FEC74801F010FEC64801F089
S11305500DFEC64801F00AFEC54801F007FEC54875
S113056001F004FEC44801F001FECC4801F0FEFD98
S1130570CB4801F0FBFDCB4801F0F8FDCA4801F07F
S1130580F5FDCA4801F0F2FDC94801F0EFFDC94884
S113059001F0ECFDC84801F0E9FDC84801F0E6FDB2
S11305A0C74801F0E3FDC74801F0E0FDC64801F08B
S11305B0DDFDC64802F0E4FF05002900C9B2C348C6
S11305C002F0E4FFC2A001F0D1FDEDB22800303802
S11305D00A2802D2EDB22C00303CEDB2280041389A
S11305E00C2802D2EDB22C00373CEDB22800613861
S11305F00C2802D22C00E4B2573C172C01DB01205A
S113060000E00020002C01D5012100E00021C0B24F
S1130610C9B2014300291AD0C848802149020160A7
S1130620C648802189020160C548802149000160D3
S1130630C2482021016050480078C0B24006400EF4
S1130640042800D020E7BF4801F090FD26E7BE480B
S1130650802149020160BC48802189020160BB48B5
S1130660802149000160B84820210160002C39D064
S1130670022C5DD049D3042C00D1FFE000D27FE0EE
S1130680062C00D164E100D224E1082C00D1E9E178
S113069000D2A0E10A2C00D169E200D21CE20C2CA9
S11306A000D1ECE200D2A5E20E2C00D17DE300D211
S11306B036E3102C01D100F0F9FC01D200F046FC25
S11306C0122C01D100F014FD01D200F0FAFC142C1C
S11306D001D100F0B9FD01D200F06EFD152C00D15E
S11306E0C5E6CFE6CA4801F041FD784802F048FF6C
S11306F0C84801F03BFD002000F0F2FF002000F0AC
S113070073FF012003F02EF8BCE6C34801F02EFD70
S11307106E4802F035FFDE4801F028FD002000F0AD
S1130720DFFF002000F060FF002003F01BF8A9E6C3
S1130730D84801F01BFD654802F022FFD64801F0BD
S113074015FD002000F0CCFF002000F04DFF02F06A
S1130750ECFF97E6EC4B0000304C000020640000F6
S113076014640000A4540000744C0000404D0000C8
S1130770009004400C90044003E00740FC6100003A
S1130780C64801F0F3FC514802F0FAFE01220221AE
S1130790002003F039F80121FA20800000F008FE5F
S11307A0D34801F0E3FC002445E000BF18F4FF1F28
S11307B0285F0000445F0000605F00007C5F000071
S11307C0985F0000685D0000B45F0000C94801F054
S11307D0CDFC002000F084FF002000F005FF02F0B3
S11307E06DFF012000F000FF012000F079FF02F00E
S11307F063FD0500EDB2072D15D1BF4801F074FE6D
S1130800BE490860BD480068022103F0C3F9FA211B
S1130810890003F0BFF9BA4908608021C904B848C7
S1130820006800F023FF2100B64801F09FFCB648A1
S113083001F09CFC641C0A2CC8DBD9480068012127
S11308408843D74908601DE6D05F0000F45A0000D1
S113085074460000C4460000C4530000144700005E
S1130860FC5300006057000010560000BC49000013
S1130870405600007056000034540000C94801F08E
S113088075FC124802F07CFECE4801F06FFC00209B
S113089000F026FF02F02CFFF4E500BF904E0000AC
S11308A064470000244500004C48000098480000BC
S11308B0D0450000EC580000D04E0000104F00005E
S11308C0B84C0000885D0000A464000000A006404D
S11308D00A0D0000BC4801F049FCBC4802F050FE7F
S11308E0BB4801F043FC002000F0FAFE002000F0B9
S11308F07BFE02F0E3FE012000F076FE02F0DCFC59
S11309000500EDB2072D15D17B4801F0EDFD7B49C3
S113091008607A480068022103F03CF9FA21890052
S113092003F038F9764908608021C90474480068E6
S113093000F09CFE744801F019FCA3E508F00F4098
S113094048F00F40E861000004F00F4044F00F400D
S1130950A04801F00BFC9D4802F012FE9E4801F0F5
S113096005FC002000F0BCFE02F08EFE9B480078DF
S1130970C0B24006400E042803D1994801F0F6FBAA
S113098028E096480078C0B24006400E012821D1E4
S113099002F092FC0500EDB2072D18D1564801F083
S11309A0A3FD5649086055480068022103F0F2F897
S11309B0FA21890003F0EEF8514908608021C90446
S11309C04F48006800F052FE864801F0CFFB01203A
S11309D000F086FE56E581480078C0B24006400E1D
S11309E0042801D102F030FE7F4801F0BFFB7748B4
S11309F002F0C6FD7D4801F0B9FB02F05DFC050084
S1130A00EDB2082D0AD1062000F0B2FE0CE000BFC2
S1130A10D8540000185B00000C550000EDB2032D03
S1130A2002D1012000F0A4FE002000F059FE02F0E3
S1130A30D6FD6A480078C0B24006400E042803D1AF
S1130A40674801F093FB0CE064480078C0B24006AC
S1130A50400E012805D1634801F088FB012000F015
S1130A603FFE0FE5624801F081FB584802F088FD23
S1130A7002F0EAFD02F020FC0500EDB2062D0FD1D4
S1130A80082000F075FE012000F02AFE0EE000BFF1
S1130A9014590000A85D00003C5B0000504F0000AA
S1130AA0EDB2012D02D1032000F062FE4B48007824
S1130AB0C0B24006400E042803D1494801F056FB59
S1130AC009E046480078C0B24006400E012802D131
S1130AD0444801F04BFBD5E440480078C0B24006DE
S1130AE0400E012812D1B74801F040FB3EE000BFA0
S1130AF0605B00001062000000127A0018F4FF1F0F
S1130B0028F4FF1F24620000CC6000003348007802
S1130B10C0B24006400E042828D1AB4801F026FBA1
S1130B202A4802F02DFDA94801F020FBA84801F055
S1130B301DFB002000F0D4FD02F02EFD27480078B4
S1130B40C0B24006400E042803D1254801F00EFB34
S1130B500CE022480078C0B24006400E012805D1BE
S1130B60204801F003FB012000F0BAFD8AE4994813
S1130B7001F0FCFA154802F003FD974801F0F6FA7B
S1130B80002000F0ADFD02F007FD14480078C0B26B
S1130B904006400E042807D1114801F0E7FA10E09E
S1130BA000000440C85D00000C480078C0B2400654
S1130BB0400E012805D10B4801F0D8FA012000F0BD
S1130BC08FFD5FE4845B0000E85D000000A0064048
S1130BD0A85B0000085E0000CC5B000003E0074057
S1130BE0386200004C620000285E0000044A0000E5
S1130BF0485E0000C74801F0B9FAC74802F0C0FCDB
S1130C00C64801F0B3FA002000F06AFD002002F0AB
S1130C10C7FC02F051FB0500EDB2072D15D1C04809
S1130C2001F062FCBF490860BE480068022102F07E
S1130C30B1FFFA21890002F0ADFFBB4908608021B1
S1130C40C904B948006800F011FDB8480078C0B282
S1130C504006400E042803D1B54801F087FA0CE0A1
S1130C60B2480078C0B24006400E012805D1B14810
S1130C7001F07CFA012000F033FDFFF703FCAE48DD
S1130C8001F074FAA44802F07BFCAC4801F06EFA5F
S1130C90002000F025FDAA48007820210143A8483F
S1130CA00170402002F07CFCA5480078DF2101405F
S1130CB0A348017002F000FB0500EDB2072D15D129
S1130CC0974801F011FC9749086096480068022192
S1130CD002F060FFFA21890002F05CFF924908608B
S1130CE08021C9049048006800F0C0FC8F48007857
S1130CF0C0B24006400E042803D18D4801F036FAF4
S1130D000CE08A480078C0B24006400E012805D1A4
S1130D10884801F02BFA012000F0E2FCFFF7B2FB57
S1130D20884801F023FA7C4802F02AFC864801F046
S1130D301DFA002000F0D4FC802002F031FC02F007
S1130D40BBFA0500EDB2072D15D1754801F0CCFBB7
S1130D507449086073480068022102F01BFFFA21FD
S1130D60890002F017FF704908608021C9046E48A9
S1130D70006800F07BFC6D480078C0B24006400E6D
S1130D80042803D16A4801F0F1F90CE067480078BF
S1130D90C0B24006400E012805D1664801F0E6F9CC
S1130DA0012000F09DFCFFF76DFB02F04DFC5F4855
S1130DB00078C0B24006400E04280FD1C94801F0A3
S1130DC0D5F915E040550000685E0000F05B0000B6
S1130DD0145C0000885E0000385C00005348007812
S1130DE0C0B24006400E012802D1BF4801F0BEF94E
S1130DF002F062FA0500EDB2012D04D14948016800
S1130E00BA4801F0B3F9EDB2022D04D145480168A6
S1130E10D34801F0ABF9EDB2032D04D14148016888
S1130E20D04801F0A3F9EDB2042D04D13D48016886
S1130E30CD4801F09BF9EDB2052D04D13948016884
S1130E40CA4801F093F9EDB2062D04D13548016882
S1130E50CF4801F08BF9EDB2072D04D13148016878
S1130E60CC4801F083F9EDB2082D04D12D48016876
S1130E70C94801F07BF9C94801F078F9C84801F084
S1130E8075F92F480078202101432D480170002472
S1130E9013E0C448006801218843C2490860C1487E
S1130EA000688007FBD4C04801F060F900F0E6FE5A
S1130EB02100BE4801F05AF9641C022C21DABC4816
S1130EC001F054F92021144802F060FBB94800787D
S1130ED00006FBD500F0C2FEB248006801210143C0
S1130EE0B0480160AF4800688007FBD502F09AFE65
S1130EF000F0C4FEAB4800688007CAD4D14801F0B2
S1130F0035F90F480078DF2101400D480170FFF7E3
S1130F10B9FA00BF3C59000000A006408C570000FD
S1130F2000127A0018F4FF1F28F4FF1F03E00740A3
S1130F30386200004C62000064590000B857000099
S1130F40044006408C590000E4570000C44800786F
S1130F50C0B24006400E012813D1C24801F006F980
S1130F60C14801F003F9C14802F00AFBC04801F08E
S1130F70FDF8062000F0FCFB002000F0B1FB02F0BD
S1130F802EFBB7480078C0B24006400E042803D1B7
S1130F90B84801F0EBF80CE0B1480078C0B2400664
S1130FA0400E012805D1B44801F0E0F8012000F01A
S1130FB097FB02F081F90500EDB2012D04D1AF4891
S1130FC001684A4801F0D2F8EDB2022D04D1AB48D1
S1130FD00168634801F0CAF8EDB2032D04D1A748B3
S1130FE00168604801F0C2F8EDB2042D04D1A348B1
S1130FF001685D4801F0BAF8EDB2052D04D19F48AF
S113100001685A4801F0B2F8EDB2062D04D19B48AC
S113101001685F4801F0AAF8EDB2072D04D19748A2
S113102001685C4801F0A2F8EDB2082D04D19348A0
S11310300168594801F09AF8D24801F097F8002461
S113104016E058480068012188435649086055480D
S113105000688007FBD4CC4801F088F8CB4801F045
S113106085F800F00BFE2100504801F07FF8641C65
S1131070022C19DAC64801F079F800F0EFFD49486E
S11310800068012101434748016046480068800721
S1131090FBD502F0C7FD00F0F1FD4248006880076F
S11310A0CFD4684801F062F8FFF7ECF9012202217D
S11310B0002002F0A9FB0121B64800F079F9FFF7FE
S11310C0E1F9B548006801210143B3480160D24801
S11310D0006801218843D0490860B04801F046F80F
S11310E0FFF7D0F9E8610000FC610000A85E000091
S11310F0AB4801F03BF85D4802F042FA5C4801F06D
S113110035F802F0A1FA012000F032FBA548802155
S1131110C90201600121A4480078C0B24008400718
S1131120400F8140A1480068C9B202F033FD534921
S11311300860524800689B490968090F491C02F07D
S11311403DFD4E49086002F04AFA45480078C0B2B5
S11311504006400E04280BD1464801F007F814E07D
S1131160445F0000605F00007C5F0000985F000047
S11311703B480078C0B24006400E012805D13E48E5
S113118000F0F4FF012000F0ABFAFFF77BF900BF99
S1131190685D0000B45F0000D05F0000904F000065
S11311A05C5C0000403000F0A8550000B459000019
S11311B07455000004A006402B4800F0D7FF2B48CC
S11311C002F0DEF9954800F0D1FF02F03DFA01206B
S11311D000F0CEFA73489249016001217248007808
S11311E0C0B240084007400F814070480068C9B24F
S11311F002F0D0FC21490860204800686949096868
S1131200090F491C02F0DAFC1C49086002F0E7F9F6
S113121013480078C0B24006400E042803D1154894
S113122000F0A4FF0CE00E480078C0B24006400E67
S1131230012805D1104800F099FF012000F050FA70
S1131240FFF720F9C850000076480078C0B2400685
S1131250400E042814D1744800F088FF934E20E017
S113126003E00740C85E0000285E000000A00640BE
S1131270044A0000386200004C62000018F4FF1FAA
S113128068480078C0B24006400E012809D1884859
S113129000F06CFF874E884800782021014386487F
S11312A0017002F009F80500EDB2012D04D19A484D
S11312B00168824800F05AFFEDB2022D04D196482D
S11312C001687F4800F052FFEDB2032D04D192482B
S11312D00168924800F04AFFEDB2042D04D18E4813
S11312E001688F4800F042FFEDB2052D04D18A4811
S11312F001688C4800F03AFFEDB2062D04D186480F
S11313000168894800F032FFEDB2072D04D182480C
S11313100168864800F02AFFEDB2082D04D17E480A
S11313200168974800F022FF3100964800F01EFF44
S113133000F094FC94480068012101439248016044
S1131340914800688007FBD502F06CFC002400E0A3
S1131350641CB44203DA8C4800688007F8D48A48D5
S11313600068800709D588480068012188438649B8
S11313700860854800688007FBD4D54800F0F6FE75
S1131380FFF780F8805C0000E4600000D04F0000AC
S1131390FC4C00008813000038800440FC6000000E
S11313A0A0560000448004400840064010F4FF1F8B
S11313B038B505000C0086480068012101438448C3
S11313C001601C2002F039FCA007800F04210143B6
S11313D080480160002C02D17F4800F0C7FE012C38
S11313E002D17E4800F0C2FE022C02D17C4800F0FB
S11313F0BDFE032C02D17B4800F0B8FEA8B29A4986
S113140008600548C02101600348006801210143C8
S11314100148016031BD0000000004404C4A000056
S11314200000021003E00740E861000080B50720D7
S113143002F003FC1C2002F000FC012201218020A8
S113144002F0E2F901BD62480068C021C90001430D
S11314505F4801609248802149000160914800681A
S11314608021090301438F4801608F48802149008E
S113147001608C4800688021C902014389480160E9
S11314809448802149000160934800680121014388
S113149091480160914880214900016099480068A1
S11314A0202101439748016070470000002D31015D
S11314B0FC61000000C2EB0B04400640285F000002
S11314C0445F000080B5002803D08F488F49016035
S11314D001E002F0F6FB8E48FF21143101600A207E
S11314E002F0FEFB8B480068082108400090009839
S11314F008280CD188480021016088480021016037
S1131500874800F033FE874800F030FE02E086484A
S113151000F02CFE01BD000018F4FF1F605F000006
S11315207C5F0000985F0000685D0000B45F00000D
S113153080B51548006880070CD513480068012160
S1131540884311490860104800688007FBD4774835
S113155000F00CFE1E480068012101431C48016094
S1131560734800F003FE734800688021014371480A
S113157001607048C12101606E480068009001BD9F
S1131580D05F0000D0560000403000F080B56A48BB
S1131590006880070CD568480068012188436649C3
S11315A00860654800688007FBD4644800F0DEFDED
S11315B063480068102806D1534800688021490414
S11315C00143514801605F4800F0D0FD01BD0000B7
S11315D0388004400400044010580000DC59000026
S11315E0045A00003C58000000B5C0B2002825D0C1
S11315F0554800688021C90001435348016053489D
S1131600C021890001605248C0218900016051480D
S113161000688021C90401434E4801603E48E0212E
S1131620C90001603D48E021C900016036483749DE
S113163001603748FF211431016013E0424800681B
S1131640414900220A60414900220A6040490022BF
S11316500A602D4900220A602F4900220A602F499E
S113166000220A6000BD00000800044080B5394A29
S11316701268394B1340374A1360364A1268364BA6
S11316801340344A1360334A12681143314A1160DB
S11316909622D2010100314801F0CAFE01BD0000CA
S11316A04090044054F00F404490044010B52C4A3C
S11316B02C480168012001F075FC04002A4800F060
S11316C0DFFE0400284800F09DFF0400200010BD48
S11316D06C54000020A00440D4F00F401490044047
S11316E000B5C0B2002806D020480078202101436C
S11316F01E48017005E01D480078DF2101401B48A9
S1131700017000BD14F00F401090044013010A0052
S11317100CB0044090F00F40009004400C90044042
S1131720844D0000C84D00000C4E00000451000020
S1131730EC5F000000000440403000F01050000056
S1131740A0900440A45C000034800440389004401D
S11317503C90044004800440FFFFFFF300A00640D7
S1131760006CDC0210F4FF1F00127A0005400640F2
S113177070B5050001F0A0FD0600C8480078C0B2AD
S11317804006400E042804D1C54800F0EFFC01F0E7
S11317905BFFC2480078C0B24006400E012802D167
S11317A0C04800F0E3FC012E12D000D230E2032E38
S11317B045D040D3052E00D1EBE000D291E0072EB6
S11317C000D151E100D2E8E0082E00D174E11FE21B
S11317D0B54800F0CBFCEDB2032D2BD10021B3486A
S11317E0006801F002FAB2490860B048006801F0EC
S11317F0D5FAAF490860AF480078A0210143AD484D
S11318000170AB48D5490160D54880214902016087
S1131810A7480068FA21890002F0BCF9040080217D
S1131820C9042000FFF722FFCE480068CE490140DA
S1131830CC480160ECE1CD4800F098FCE8E1CC48EC
S113184000F094FCEDB2062D14D101220121C94807
S113185000F0D0FF96490860C64800F0A1FF944903
S11318600860C548007880210143C3480170FA2408
S113187064012DE0EDB2012D2AD1C0480078F12198
S11318800140BE4801700121E248006801F0ECFA11
S1131890874908600121DF48006801F079F984492B
S11318A00860AF488021C902016081480068FA21BC
S11318B0890002F06FF90400D7480078022101433F
S11318C0D5480170D548007801210143D3480170FF
S11318D0C02109052000FFF7C9FED14800F046FCED
S11318E096E1D04800F042FCEDB2012D33D1CB4853
S11318F00078FE210140C9480170C74800780221E0
S11319000143C54801709D480078F12101409B487E
S113191001700121BF48006801F09AF96449086028
S11319200121BC48006801F033F9614908608C4822
S11319308021C90201605E480068FA21890002F032
S113194029F90400C02109052000FFF78FFEB648DD
S113195000F00CFC1CE0EDB2062D19D1854801F015
S113196011F853490860834800F01AFF5049086091
S113197081480078802101437F480170FA24640182
S1131980C02109052000FFF771FEA84800F0EEFB16
S11319903EE1A74800F0EAFB3AE1A64800F0E6FB86
S11319A0EDB2012D38D19D480078FE2101409B48BD
S11319B001709948007802210143974801706F48EB
S11319C00078F12101406D4801706A4800F0B6FECC
S11319D03749086001218F48006801F01FF8344935
S11319E0086001218B48006801F0D2F83049086092
S11319F05B488021C90201602D480068FA218900F2
S1131A0002F0C8F80400C02109052000FFF72EFEEB
S1131A10894800F0ABFB26E0EDB2082D23D15048F5
S1131A2080214902016018220421524800F00EFE70
S1131A301F4908604F4800F057FD1D4908601C48C5
S1131A400068022102F0A6F8FA21890002F0A2F847
S1131A507A4908608021C90478480068FFF706FEC7
S1131A60774800F083FBD3E0764800F07FFBEDB2CB
S1131A70082D0ED13A488021490201603D4800F00A
S1131A8033FD0B4908608021C90409480068FFF749
S1131A90EDFD6B4800F06AFBBAE000BF03E00740CD
S1131AA040510000B4630000C85C000014F4FF1F40
S1131AB018F4FF1F03400640EDB2012D60D16D48BC
S1131AC0026854480168012001F06CFAC0B2002891
S1131AD002D0694800F04AFB012000F0D1FC6549BE
S1131AE00860012000F05CFD62490860234800782A
S1131AF0F12101402148017001214648006800F0AD
S1131B008DFF5C49086001214248006801F040F8FB
S1131B105849086057480068FA21890002F03AF8E9
S1131B2004000F488021C90201603B48007802216B
S1131B30014339480170394800780121014337488D
S1131B4001700020FFF7CCFDC02109052000FFF73C
S1131B508DFD544800F00AFB5AE000BF006CDC0223
S1131B604480044004800440FFFFFEFF1461000031
S1131B70C463000000127A0000500640084006408A
S1131B80494800F0F3FA3B48026822480168012002
S1131B9001F008FAC0B2002802D0374800F0E6FA93
S1131BA0FFF784FD334908604048007880210143F1
S1131BB03E48017017480068FA21890001F0EAFFE5
S1131BC004003B483B4901602A48006838490968D9
S1131BD0090F491C01F0F2FF264908600E480078FD
S1131BE0022101430C4801700C4800780121014393
S1131BF00A48017030480078F12101402E480170F4
S1131C00C02109052000FFF731FD2C4800F0AEFA91
S1131C1070BD00BF10F4FF1F0040064001400640A5
S1131C2008600000606200002C6100004461000054
S1131C3074620000886200002460000028F4FF1F22
S1131C40406000009C6200001D4800680721884332
S1131C501B4908601B480021016070471948802116
S1131C6089010160184800210160154807210160BD
S1131C707047000018F4FF1FB062000080B51348DD
S1131C800068800709D511480068012188430F497D
S1131C9008600E4800688007FBD40D4800F066FA1F
S1131CA001BD0000EC5C0000DC5500000050064063
S1131CB0448004400000031008400640105D00000A
S1131CC010E000E014E000E018E000E0403000F034
S1131CD0944A000010B50C001168012902D00229B1
S1131CE004D009E0C0B25168884705E091680870E3
S1131CF09068401C9060FFE72068401C206010BD85
S1131D00F0B51C0000260500002028706D1C002A78
S1131D101CD00F68002F09D130202870761C3000A9
S1131D20F0BD30320F002A706D1C761C002FF6D0E7
S1131D303800210001F02EFF0100080060433A1A28
S1131D40002AEED5D04302003132EBE70F68002FB2
S1131D5008D130202870761CE1E73731070029705C
S1131D606D1C761C002FDAD03800210001F026FF0C
S1131D7001006143791A0A29EFD23031EEE7F8B550
S1131D800F0015001E00040005E032002900302079
S1131D90FFF7A0FF641CBC42F7DBF1BDF8B50F00F0
S1131DA015001E00040005E0320029002020FFF782
S1131DB091FF641CBC42F7DBF1BDF1B590B0170094
S1131DC0002000900E0005E0109A69461800FFF705
S1131DD081FF761C3378002B00D1C4E1252B12D06F
S1131DE00A2B05D0109A69461800FFF773FF09E023
S1131DF0109A69460D20FFF76DFF109A69460A2074
S1131E00FFF768FFE5E70025002102E0280001252F
S1131E10054300291FD1761C307820280CD02328B4
S1131E2012D02B2804D02D28F0D0302808D00FE071
S1131E30280002250543ECE7280004250543E8E7CC
S1131E40280008250543E4E7280010250543E0E7BA
S1131E50761E0121DDE700200290002105E00298B2
S1131E600A225043C01830380290002908D1761C49
S1131E703378180030380928F1D9761E0121F4E7A7
S1131E80761C30782E280BD10021FFE7002908D1D9
S1131E90761C307830380928F8D9761E0121F5E708
S1131EA0761E761C30784C2806D0682802D06C2820
S1131EB001D002E002E001E000E0761E761C3378F7
S1131EC01800582871D0622800D1CAE0632800D1D4
S1131ED013E1642813D0692811D06E2800D13DE1A4
S1131EE06F2800D1B2E0702800D1C5E0732800D17A
S1131EF00BE1752800D1CAE0782856D064E7386829
S1131F0006903F1D0A23012206A907A8FFF7F8FE41
S1131F10040007A8001905900698002803D52D2071
S1131F200190641C0DE0A80703D52B200190641CCC
S1131F3007E0680703D520200190641C01E000201D
S1131F40019000200490280711D50198002804D09E
S1131F50109A69460198FFF7BDFE01200490109B7A
S1131F606A4602992000FFF70AFF029C11E0E80785
S1131F700FD4109B6A4602992000FFF70FFF0198C7
S1131F80002804D0109A69460198FFF7A3FE0120A7
S1131F9004900498002807D10198002804D0109ACE
S1131FA069460198FFF796FE9AE0386803903F1D52
S1131FB01023002203A907A8FFF7A2FE040007A824
S1131FC00019059000200490280715D5E8060BD5C4
S1131FD0109A69463020FFF77DFE109A69467820F2
S1131FE0FFF778FE01200490109B6A4602992000B6
S1131FF0FFF7C5FE029C18E0E80716D4E80600D5F2
S1132000A41C109B6A4602992000FFF7C7FEE8064D
S11320100BD5109A69463020FFF75CFE109A69468A
S11320207820FFF757FE01200490E8060DD50498A8
S113203000280AD1109A69463020FFF74BFE109A07
S113204069467820FFF746FEA41C49E038680390EF
S11320503F1D0823002203A907A8FFF751FE04002F
S11320601FE0386803903F1D0223002203A907A83C
S1132070FFF746FE040014E0386803903F1D102368
S1132080002203A907A8FFF73BFE040009E0386813
S113209003903F1D0A23002203A907A8FFF730FE7F
S11320A0040007A800190590280707D5109B6A4665
S11320B002992000FFF763FE029C11E0E8070FD4A9
S11320C0109B6A4602992000FFF768FE08E0109A08
S11320D0694605980078FFF7FDFD0598401E0590B8
S11320E0059800780028F2D1E80705D5109B6A46C8
S11320F002992000FFF752FE6BE63868C0B23F1D1C
S1132100109A6946FFF7E6FD63E6386801903F1DC3
S11321100198002821D0019801F00AFE0400E80784
S11321200FD4109B6A4602992000FFF737FE08E09F
S1132130109A694601980078FFF7CCFD0198401C7D
S11321400190019800780028F2D1E80705D5109B8A
S11321506A4602992000FFF721FE3AE638683F1DDF
S11321600099016035E6009811B0F0BD0EB400B5D9
S113217084B0012100910549019105AA0100684636
S1132180FFF71BFE049908B008470000A163000094
S1132190F4B504000D001E00A6480078C0B2800803
S11321A08007800F002807D1A2480078C00603D515
S11321B0A0480078800601D5012039E19E48844278
S11321C001DB212034E168460078002806D09B48D2
S11321D0201A9B49884201D3222029E1EDB2002D27
S11321E000D0012576B23000401E192801D34120C9
S11321F01EE1694618200F567FB2380018381B2894
S113220001D3422014E1200076B2310001F0C2FC77
S11322108C49401A8C49884201D3432008E12000AC
S113222076B2310001F0B6FC7FB278438749401A98
S11322308749884201D34520FAE0864800780100A6
S1132240C320084084498C420ADA0100EDB2E80058
S11322506A4612789200024310201043084309E0B2
S11322600100EDB2E8006A46127892000243202091
S113227010430843774908707848844201DA002102
S113228014E07748844201DA01210FE07548844262
S113229001DA02210AE07448844201DA032105E0EC
S11322A07248844201DA042100E005217048007874
S11322B08007800F0200C8003821014080200843B5
S11322C010436B49087068460078002810D000203D
S11322D000E0401C00B26749884203DA5549097896
S11322E08907F6D553480078800701D423209FE05E
S11322F0002000E0401C00B2FA21C900884203DA41
S11323004C490978C906F5D44A480078C00601D575
S113231011208DE0002000E0401C00B2FA21C90029
S1132320884207DA43490978C9B289088907890FBD
S11323300229F1D13F480078C0B280088007800F9D
S1132340022801D01A2073E04B4800782021014371
S113235049480170494800780100E0200840010024
S1132360701EC006C00E08434449087042480078F5
S11323700100E02008400200183FF906C90E402081
S1132380084310433C490870002000E0401C00B2A0
S1132390FA21C900884203DA264909788906F5D565
S11323A024480078800601D4162041E0002000E093
S11323B0401C00B2FA210901884203DA1D49097858
S11323C04906F5D51B480078400601D444202FE087
S11323D02A480078C106C90E491C27480078C5065A
S11323E0ED0E1835224800788006800E204A1070C1
S11323F0002000E0401C00B2FA22D200904207DA2A
S11324000C4A1278D2B292089207920F032AF1D1A1
S113241008480078C0B280088007800F032801D0E4
S11324201B2005E02000C9B201F0B4FBEDB2684303
S1132430F2BD00000640064081F0FA02C0C62D003D
S11324404181BA0180841E0081841E00006CDC027C
S1132450017519030140064001127A00D1121300DC
S1132460A1252600414B4C0081969800012D310195
S113247000400640204E000005400640044006404F
S113248000B546490978C9B289088907890F032923
S113249007D142490978C90603D440490978890615
S11324A001D408201FE05649097880220A43544980
S11324B00A70002100E0491C09B2FA22D2009142BC
S11324C007DA364A1278D2B292089207920F022A99
S11324D0F1D132490978C9B289088907890F0229DB
S11324E001D01A20FFE700BD10B52C490978C9B204
S11324F089088907890F02290BD128490978C90657
S113250007D426490978890603D54D4909788907EE
S113251001D5072040E0002200E0521C12B2FA214B
S1132520C9008A4203DA1D4909784906F5D51B49D1
S11325300978490601D444202EE042490978C906A5
S1132540C90E491C404A1278D406E40E18342C4AA9
S113255012789206920E2A4B1A70002200E0521C46
S113256012B2FA23DB009A4207DA0C4B1B78DBB277
S11325709B089B079B0F032BF1D1084A1278D2B218
S113258092089207920F032A01D01B2004E0C9B2DB
S113259001F000FBE4B2604310BD000006400640B9
S11325A000B565490978C9B289088907890F0229E4
S11325B00BD161490978C90607D45F4909788906AE
S11325C003D51F490978890701D5072017E01E495B
S11325D00978BF220A401C490A70002100E0491C06
S11325E009B2FA22D200914203DA534A12789206CF
S11325F0F5D451490978890601D51520FFE700BDB6
S11326000040064000B54C490978C9B289088907D9
S1132610890F02290BD148490978C90607D44649CC
S11326200978890603D570490978890701D50720F7
S113263005E06D49097802220A436B490A7000BD1E
S113264001400640044006400540064070B50400C1
S11326500D00160061480078C0B280088007800F22
S1132660022807D15D480078C00603D45E4800788C
S1132670800701D406205EE06DB22800401E1928B0
S113268001D3412057E076B2300018381B2801D31B
S1132690422050E020006DB2290001F07BFA50493D
S11326A0401A5049884201D3432044E04F480078FF
S11326B00100E02008400100681EC006C00E084367
S11326C04A4908704A4800780100E02008400200A6
S11326D0183EF106C90E40200843104344490870CF
S11326E041480078FD2101403F480170002000E08E
S11326F0401C00B2FA21C900884203DA374909783C
S11327008906F5D535480078800601D4162012E0F4
S1132710002000E0401C00B2FA21C900884203DA1C
S11327202E4909784906F5D52C480078400601D48D
S1132730442000E0200070BD0640064000B5274953
S11327400978C9B289088907890F022907D1234961
S11327500978C90603D424490978890701D40620D5
S11327601DE023490978BF220A4021490A701E4905
S11327700978FD220A401C490A70002100E0491C26
S113278009B2FA22D200914203DA144A127892066C
S1132790F5D412490978890601D51520FFE700BD53
S11327A000B50E490978C9B289088907890F022939
S11327B00BD10A490978C90607D40849097889065A
S11327C003D409490978890701D5042005E006499D
S11327D0097802220A4304490A7000BD06400640F3
S11327E080841E0081841E0001400640044006408F
S11327F00540064030B5604B1B78DBB29B089B0755
S11328009B0F002B07D15C4B1B78DB0603D55A4B7F
S11328101B789B0601D50120ADE0594B984201DBA2
S11328202120A8E0D2B2002A0CD0704B984207DBDA
S11328306F4BC31A6F4CA34202D36F4B984201DB18
S1132840222098E0C9B2002900D001216B4B1B78EB
S11328501C00C3232340664CA04207DA1C00C9B203
S1132860C900D2B293000B43234315E0644CA04249
S113287009DA1D00C9B2C900D2B294000C43102376
S113288023432B4308E01D00C9B2C900D2B294000F
S11328900C43202323432B4358490B705949884246
S11328A001DA002114E05849884201DA01210FE0DD
S11328B05649884201DA02210AE05549884201DA80
S11328C0032105E05349884201DA042100E005218F
S11328D02A4B1B789B079B0F1D00C90038240C4012
S11328E0802323432B4325490B70D2B2002A10D0F6
S11328F0002100E0491C09B2474A914203DA1E4A0A
S113290012789207F6D51C490978890701D4232047
S113291031E0002100E0491C09B2FA22D2009142C0
S113292003DA154A1278D206F5D413490978C90690
S113293001D511201FE0002100E0491C09B2FA2250
S1132940D200914207DA0C4A1278D2B29208920766
S1132950920F022AF1D108490978C9B28908890776
S1132960890F022901D01A2005E081490978202223
S11329700A437F490A7030BD0640064000400640C5
S113298081F0FA0200B57B490978C9B28908890740
S1132990890F002907D177490978C90603D47549F5
S11329A00978890601D502201FE07349097880223D
S11329B00A4371490A70002100E0491C09B2FA2255
S11329C0D200914207DA6B4A1278D2B29208920787
S11329D0920F022AF1D167490978C9B28908890797
S11329E0890F022901D01A20FFE700BD30750000CD
S11329F0419C00007F2A2D000148E8010140064067
S1132A0001127A00D1121300A1252600414B4C007B
S1132A1081969800012D31011027000000B5554A18
S1132A201278D2B292089207920F022A0BD1514A1D
S1132A301278D20607D44F4A1278920603D44F4A2A
S1132A401278920701D5042091E0C9B2002906D179
S1132A504B4A821A4B4B9A4208D3312087E04A4AA8
S1132A60821A4A4B9A4201D3322080E0C9B200292B
S1132A7006D0424A127801231343404A137005E0FA
S1132A803E4A1278FE2313403C4A1370384A1278A7
S1132A90DF231340364A1370374A12789206920E97
S1132AA0130044221A43344B1A70C9B2002911D1BD
S1132AB0002200E0521C12B2FA23DB009A4203DA2D
S1132AC02C4B1B78DB07F5D42A4A1278D20713D58E
S1132AD013204CE0002200E0521C12B2FA23DB0067
S1132AE09A4203DA234B1B78DB07F5D5214A127887
S1132AF0D20701D414203AE0002200E0521C12B2A2
S1132B00FA23DB009A4207DA1A4B1B78DBB29B08E4
S1132B109B079B0F012BF1D1164A1278D2B292086F
S1132B209207920F012A01D0192020E0002200E030
S1132B30521C12B2FA23DB009A4203DA0D4B1B78C3
S1132B40DB06F5D50B4A1278D20601D412200EE02A
S1132B50C9B200290BD001213A4A1278D2B25208E4
S1132B605207520F9140C9B201F014F8FFE700BDBB
S1132B70054006400640064000400640014006402D
S1132B80127A0000861E0000C0C62D0081841E003B
S1132B9000B52D4A1278D2B292089207920F012AF8
S1132BA00BD1294A1278D20607D5274A1278920601
S1132BB003D4264A1278920701D5032014E0234A4D
S1132BC0127802231343214A1370C9B200290BD08F
S1132BD001211C4A1278D2B252085207520F914076
S1132BE0C9B200F0D7FFFFE700BD00B5164A12785E
S1132BF0D2B292089207920F012A0BD1124A12788C
S1132C00D20607D5104A1278920603D40F4A1278D6
S1132C10920701D4052014E00C4A1278FD231340D6
S1132C200A4A1370C9B200290BD00121054A12784F
S1132C30D2B252085207520F9140C9B200F0AAFF13
S1132C40FFE700BD0840064006400640014006403C
S1132C5000B57F4A1278D2B292089207920F002AE6
S1132C6007D17B4A1278D20603D4794A12789206A5
S1132C7001D502208EE0C9B2002906D1754A821A14
S1132C80754B9A4208D3312084E0744A821A744BFB
S1132C909A4201D332207DE0C9B2002906D0714A9C
S1132CA01278012313436F4A137005E06D4A1278BA
S1132CB0FE2313406B4A1370644A1278DF231340D7
S1132CC0624A1370344A127844231343324A13700D
S1132CD0C9B2002911D1002200E0521C12B2FA2319
S1132CE0DB009A4203DA5A4B1B78DB07F5D4584AC7
S1132CF01278D20713D513204CE0002200E0521CB6
S1132D0012B2FA23DB009A4203DA514B1B78DB0739
S1132D10F5D54F4A1278D20701D414203AE00022A4
S1132D2000E0521C12B2FA23DB009A4207DA484B45
S1132D301B78DBB29B089B079B0F012BF1D1444A04
S1132D401278D2B292089207920F012A01D0192068
S1132D5020E0002200E0521C12B2FA23DB009A4267
S1132D6003DA3B4B1B78DB06F5D5394A1278D206D9
S1132D7001D412200EE0C9B200290BD00121814AEE
S1132D801278D2B252085207520F9140C9B200F0E1
S1132D9001FFFFE700BD00000040064080B57A490E
S1132DA00978C9B289088907890F01290BD17649A5
S1132DB00978C90607D574490978890603D42949CD
S1132DC00978890701D503203FE02249411A224AA4
S1132DD0914201D3312038E000F0BAF93C2834DBC9
S1132DE06A4909788906890E0A0004211143674A51
S1132DF01170002100E0491C09B2FA22D20091426C
S1132E0003DA614A1278D206F5D55F490978C90612
S1132E1001D4122019E0002100E0491C09B2FA2271
S1132E20D200914207DA584A1278D2B29208920735
S1132E30920F002AF1D154490978C9B28908890747
S1132E40890F002901D01820FFE702BD0540064084
S1132E5006400640127A0000861E0000C0C62D00FF
S1132E6081841E000140064000B5474A1278D2B260
S1132E7092089207920F002A07D1434A1278D20689
S1132E8003D5414A1278920601D5012079E0C9B2EE
S1132E90002906D13E4A821A3E4B9A4208D3312079
S1132EA06FE03D4A821A3D4B9A4201D3322068E0DA
S1132EB0C9B2002906D03A4A127801231343384A8A
S1132EC0137005E0364A1278FE231340344A137017
S1132ED02E4A12789206920E130040221A432B4B6C
S1132EE01A70C9B2002911D1002200E0521C12B29A
S1132EF0FA23DB009A4203DA234B1B78DB07F5D471
S1132F00214A1278D20713D513203AE0002200E0B8
S1132F10521C12B2FA23DB009A4203DA1A4B1B78D2
S1132F20DB07F5D5184A1278D20701D4142028E01B
S1132F30002200E0521C12B2FA23DB009A4207DAA4
S1132F40114B1B78DBB29B089B079B0F012BF1D124
S1132F500D4A1278D2B292089207920F012A01D038
S1132F6019200EE0C9B200290BD00121054A1278BC
S1132F70D2B252085207520F9140C9B200F00AFE71
S1132F80FFE700BD084006400640064000400640FA
S1132F90127A0000861E0000C0C62D0081841E0027
S1132FA001400640F8B504000D001600E4B2002C00
S1132FB000D0012400F080F9C0B2082807D0C0B2C4
S1132FC0072804D0C0B2052801D00120B1E05A4836
S1132FD007683000594900F0DDFD574909680A00C7
S1132FE0574911400A000004E021C902014011437D
S1132FF051480160300050490968090C491C00F02F
S1133000DDFD5049411A504A914203D34A480760B2
S113301003208EE0E4B2002C0DD146498D4203DA40
S113302045480760042084E048498D4211DB42484A
S1133030076005207DE098498D4203DA3E48076029
S1133040062076E095498D4203DB3B480760072064
S11330506FE0E4B2002C13D000F07AFE06002800E2
S113306000F076FE0100300000F08BFE8C4900F089
S1133070DDFE8621C90500F0D9FE00F031FF0EE027
S113308000F066FE0600280000F062FE0100300039
S113309000F077FE824900F0C9FE00F021FF81496B
S11330A002000A7080B2000A7F4908707F480078E5
S11330B0C006C00E7D490870E4B2A001802101431E
S11330C07A4800780143794801707848007800060E
S11330D0FBD476480078800603D51748076008209B
S11330E027E0E4B2002C0DD171480078C0B2FF286B
S11330F004D06F480078C0B2002817D10E4807608A
S1133100092016E06B480078C0B240080007000FA1
S11331100F2807D067480078C0B240080007000FA6
S1133120002803D1044807600A2002E0024807602F
S11331300020F2BD127A0000448004400024F40010
S1133140FFFFF8FF00127A0001127A00979800003E
S113315000B501000020574A1278D2B252099207F2
S1133160920F022A01D33B2094E0524A12781206AD
S113317047D5504A1278D2B252099207920F002AC8
S113318005D0022A21D011D3032A2CD082E0B72003
S11331908000414308009A49884201DA332079E0EB
S11331A09849884201DB342074E073E0B720C00002
S11331B0414308009449884201DA35206AE0934982
S11331C0884201DB362065E064E091484143080011
S11331D09049884201DA37205CE08F49884201DB5C
S11331E0382057E056E08D48414308008C49884216
S11331F001DA39204EE08B49884201DB3A2049E06C
S113320048E02C4A1278D2B252099207920F002A4F
S113321005D0022A21D011D3032A2DD03AE0A020D0
S11332208000414308007649884201DA332031E0C6
S11332307449884201DB34202CE02BE0A020C0003C
S1133240414308007049884201DA352022E06F4981
S1133250884201DB36201DE01CE0F020C000414321
S113326008006C49884201DA372013E06A49884231
S113327001DB38200EE00DE0A020000141430800EE
S11332806749884201DA392004E06649884201DB53
S11332903A20FFE700BD0000C0C62D00414B4C00A2
S11332A00000A8410B4006400A4006400840064082
S11332B0024006400340064000B55B480078C0B2B7
S11332C080088007800F002809D157480078C0067D
S11332D005D555480078800601D403208EE0524875
S11332E00078C0B280088007800F032809D14E48B7
S11332F00078C00605D44C480078800601D5082023
S11333007CE049480078C0B280088007800F02281A
S11333100DD145480078C00609D44348007880069A
S113332005D542480078800701D4072066E03E486E
S11333300078C0B280088007800F02280DD13A4877
S11333400078C00609D438480078800605D4374888
S11333500078800701D4052050E033480078C0B2DB
S113336080088007800F022809D12F480078C00602
S113337005D42E480078800701D506203EE02A486F
S11333800078C0B280088007800F01280DD126483C
S11333900078C00609D524480078800605D423485F
S11333A00078800701D5012028E01F480078C0B2CA
S11333B080088007800F01280DD11B480078C006C3
S11333C009D519480078800605D418480078800784
S11333D001D4022012E014480078C0B280088007AB
S11333E0800F002809D110480078C00605D40E4883
S11333F00078800601D4042000E0002000BD000015
S1133400002D310141787D01005A620281F0FA02F7
S11334109508000000879303C1687804710B0000CD
S113342000B4C40401E1F50506400640014006402D
S1133430F6B500200026002700220023474C25680B
S11334408024E4002C43454D2C60454C2578F3241E
S11334502C40434D2C700C00203C424DAC4208D310
S11334600021414802681000404A02403E48026080
S1133470FEE7019CFA208000414300910425009856
S11334802100EDB2694300F099FB01000098EDB210
S1133490694300F093FB844201D2061B00E0261A24
S11334A0EDB22F00052506E0231A9E4202D31E002A
S11334B0EDB22F006D1CEDB2212D0FDA0098210022
S11334C0EDB2694300F07AFB01000098EDB2694364
S11334D000F074FB8442E7D2031BE6E7200064217A
S11334E000F06CFB03214843864235D23800001FAC
S11334F0052805D21E480078022101431C480170AA
S11335001C480278D2B21F2082431100781EC0B238
S1133510C206D20E0A43174811000170D206D20E19
S1133520521C00985443210000F048FB010012484B
S11335300278D2B21F2082430800000AC006C00EDF
S113354010430D4A10700D480170054800780C2195
S1133550014303480170F3BDFEE7000034800440DA
S113356003A0064031C3000004800440FFFFFFF3C2
S11335700BA006400AA0064000A0064001A0064099
S113358000B501798906FCD5C07900BD00B5027982
S11335901206FCD5C17100BD80B500F043FB01BD2E
S11335A010B5040091480021017093480078F82177
S11335B001409148017090488F49097801708C4806
S11335C000788006800E8A49087089480078044390
S11335D0874804708848047800F01CFB10BD00B5CF
S11335E0002086490978C9B24906490E042900D148
S11335F014207E4920220A707E4909789F220A40BD
S11336007C490A707B49097840220A4379490A7047
S1133610002100E0491C7A4A914204DA794A12787E
S1133620D2B25207F6D477490978C9B2490700D50E
S1133630242072490978C9B24906490E042902D1E5
S11336406E480078C0B200BD00B56C480078C0B2C6
S11336504006400E042816D1664800789F21014098
S113366064480170002000E0401CFF280BDA634925
S11336700978C9B24906490E7F29F5D1614909780B
S1133680C9B24907F0D500BD80B558482021017062
S113369059480078F821014057480170564800788D
S11336A0022101435448017053480078C0B200908D
S11336B00098401C009000F0ADFA01BD80B54B4865
S11336C0082101704C480078F82101404A480170F3
S11336D0494800780321014347480170464800786F
S11336E0C0B200900098401C009000F093FA01BD15
S11336F080B53E48022101703E480078F82101401F
S11337003C4801703B48007804210143394801706A
S113371037480321017036480078C0B20090009801
S1133720401C009000F076FA01BD80B52F480221BC
S1133730017030480078F82101402E4801702D486E
S11337400078042101432B480170294801210170AC
S113375027480078C0B200900098401C009000F008
S113376059FA01BD10B50400204802210170234814
S11337700078C0B24006400E042811D11D480078DC
S11337809F2101401B480170002000E0401CFF28DD
S113379006DA1A490978C9B24906490E0129F5D150
S11337A014480078F821014012480170114800784B
S11337B0042101430F4801700D480078F8210140AD
S11337C00B4801700A480078DF2101400848017065
S11337D007480078E4B261010143054801700448D8
S11337E0047800F017FA10BD0000000000E0074064
S11337F002E0074001E0074001E0074003E0074022
S11338001027000002D00740F8B504000D0017008F
S113381071480678E00702D57048FEF7A7FCA007B8
S113382002D56F48FEF7A2FC600702D56D48FEF78B
S11338309DFC200702D56C48FEF798FC664806708C
S11338406A480678E00602D56948FEF78FFCA006B0
S11338500DD53100A8000C2606400E436548FEF73E
S113386085FC6548007820210143634801706006A7
S11338700DD531002801302606400E435F48FEF77F
S113388075FC5D480078402101435B4801702006C7
S11338900BD53000AE0106435948FEF767FC564885
S11338A000788021014354480170504806705548FF
S11338B00678E0050CD53000AE07B60F0643524833
S11338C0FEF754FC51480078012101434F48017030
S11338D0A0050DD53100A8000C2606400E434C4827
S11338E0FEF744FC4948007802210143474801702F
S11338F060050DD531002801302606400E434548A9
S1133900FEF734FC41480078042101433F4801702C
S113391020050BD53000AE0106438E48FEF726FC89
S11339203A48007808210143384801703548067048
S113393089480678E0040CD53000AE07B60F06437C
S11339408648FEF713FC31480078102101432F48C4
S11339500170A0040DD53100A8000C2606400E43CA
S11339607F48FEF703FC29480078202101432748BB
S1133970017060040DD531002801302606400E4345
S11339807848FEF7F3FB21480078402101431F48A3
S1133990017020040BD53000AE0106437248FEF7D7
S11339A0E5FB1A48007880210143184801706A48F1
S11339B00670FFB2002F03D16C48002101700AE0A9
S11339C06A48007807436948077068480178C9B2B3
S11339D06748FEF7CBFBF1BD00C00740504E000026
S11339E01C530000545300008C53000001C00740D6
S11339F0505000007C45000005C00740E44800002A
S1133A00DC4A000002C007402C49000006C0074001
S1133A1074490000204B000000B558480078800627
S1133A2005D5564800782021014354480170534875
S1133A300078400605D551480078402101434F489D
S1133A4001704E480078000605D54C480078802166
S1133A5001434A4801704A480078C00705D54848E0
S1133A6000780121014346480170454800788007E9
S1133A7005D543480078022101434148017040487C
S1133A800078400705D53E480078042101433C48AE
S1133A9001703B480078000705D5394800780821B3
S1133AA001433748017036480078C00605D53448CC
S1133AB000781021014332480170314800788006B3
S1133AC005D52F480078202101432D4801702C484A
S1133AD00078400605D52A4800784021014328484B
S1133AE0017027480078000605D525480078802114
S1133AF001432348017023480078C0070ED52248AB
S1133B0000680121014320480160204800688021A9
S1133B1001431E4801601D48C12101601548007819
S1133B20000605D51348007880210143114801702F
S1133B3011480078000605D50F480078802101431C
S1133B400D4801701248006880210143104801604B
S1133B5000BD0000644B000003C00740B4470000F0
S1133B60A84B0000004800002446000004C00740A1
S1133B708C50000008C0074009C0074005C007403A
S1133B8006C0074007C007403880044000000440D6
S1133B9080E200E0CA0F00D0494203105A400DD021
S1133BA004B500D3404200F009F8009AD20701D3CB
S1133BB04942124200D5404204BD0000094210D0DF
S1133BC088420BD30122002300185B418B4200D3AF
S1133BD05B1A5241F8D3190010007047010000200D
S1133BE0704708B500F09AF908BD38B401210022E5
S1133BF00368001D002B0BD00468001D0C4202D08A
S1133C004D466D1E64192260241D1B1FF0D0FAE777
S1133C1032BC70471848006804210143164801600B
S1133C2030BF704714480068042188431249086073
S1133C3030BF704711490860704770B50400212CEB
S1133C4003DB0F48FEF792FA15E00E4805680126DB
S1133C5020002021FFF79EFF8E402E430948066076
S1133C6009480568012620002021FFF793FF8E40B4
S1133C702E430548066070BD10ED00E008ED00E03D
S1133C80E452000080E200E000E100E000B50F48EB
S1133C90006880070AD50D480068012188430B4954
S1133CA008600A4800688007FBD409E0002000E0AF
S1133CB0401C0749884203DA06490968C906F7D552
S1133CC000BD05480549016070470000403000F020
S1133CD0FFFF010010F00FF81090044013070000DC
S1133CE000B50F49096801220A430D490A600D49CC
S1133CF000220A600C4908600C480521016009484B
S1133D000068012101430748016006480068000675
S1133D10FBD504480068012188430249086000BDBE
S1133D2038800440000004400800044004000440BB
S1133D3000B501000020002902D1002006E0401C4B
S1133D400A001100491C1278002AF8D100BD0000B5
S1133D509D21020008D5F446524200F005F80122E4
S1133D60D2071043604700000AD002D4491E9218BB
S1133D70FCD5C905100A1206524100D3012A484154
S1133D80704730B405004D400122D20715404B184E
S1133D900418240E28D01B0E2FD0FF2C34D0FF2B58
S1133DA037D0E41A000209021043114343084808BB
S1133DB0D10D1B1A02D2641EDB181B18DB188342B8
S1133DC000D31B1A4941F9D37F3426DDFE2C08DACF
S1133DD0E4054808C907194391416041284330BCB0
S1133DE07047FF20C005F9E728001B0E03D0FF2B06
S1133DF0F5D14902F3D0D043F1E7FF2C01D14002C1
S1133E00F9D1FF20C005E9E74002F4D1FF2BF8D136
S1133E10F1E728004902E2D0EDE70B02002024423A
S1133E20DCD15B129B1CD9D9D805D7E730B4050087
S1133E304D400122D20715404B180418240E30D0EF
S1133E401B0E34D0FF2C36D0FF2B3CD0E4180002DC
S1133E50090210431143000A090A9446C2B24A43B4
S1133E60000AC3B24B43000A4843110A5B18190AFB
S1133E7012061B0C1A43120A091801D44918641EAD
S1133E80080A7F3C23DBFE2C08DAE405090611430B
S1133E90634699416041284330BC7047FF20C00508
S1133EA0F9E728001B0EFF2BF6D1D043F4E72800D6
S1133EB0FF2CF1D1F9E74002F7D1FF2B01D14902E0
S1133EC0F3D1E005E7E7D8054902E4D0EDE7430282
S1133ED00020641CDFD15B129B1CDCD9D805DAE717
S1133EE00122D2070118090E7F3910D449421F312B
S1133EF00FD4001805D2C0011043C84000D5D043E8
S1133F007047C0011043C84005D4404270470020A8
S1133F1070470042F3D5100070470000704700005E
S1133F2080B57C480021016000F044F900F094F968
S1133F307948FEF71BF900F019FA00F003F8FCF7D2
S1133F4073FAFEE780B575480068000F4007400F1C
S1133F50002806D002280CD007D3042811D00CD393
S1133F6013E06F48FEF702F912E06E48FEF7FEF820
S1133F700EE06D48FEF7FAF80AE06C48FEF7F6F832
S1133F8006E06B48FEF7F2F802E06A48FEF7EEF846
S1133F9062480068000E4007400F042802D005283C
S1133FA004D007E064A0FEF7E1F806E063A0FEF7A2
S1133FB0DDF802E06248FEF7D9F8584800680007C7
S1133FC0000F00280CD001280ED0022810D004289D
S1133FD012D0052814D0062815D0082816D019E0C8
S1133FE05848FEF7C3F818E05748FEF7BFF814E046
S1133FF05648FEF7BBF810E05548FEF7B7F80CE05A
S11340005448FEF7B3F85448FEF7B0F85348FEF7A7
S1134010ADF802E05248FEF7A9F840480068000DE8
S11340204007400F012803D14E48FEF79FF802E0F5
S11340304D48FEF79BF839480068000C4007400FD4
S113404000280BD0022811D00CD3042816D011D389
S113405006281BD016D307281CD01FE04348FEF7C0
S113406085F81EE04248FEF781F81AE04148FEF761
S11340707DF816E04048FEF779F812E03F48FEF775
S113408075F80EE03E48FEF771F80AE03D48FEF789
S11340906DF806E03C48FEF769F802E03B48FEF79D
S11340A065F80F2189B23A48FEF760F8394800688C
S11340B0000E0007000F00280CD001280ED00328A2
S11340C010D0052812D0072814D0092816D00F289C
S11340D018D01BE03048FEF749F81AE02F48FEF7E5
S11340E045F816E02E48FEF741F812E02D48FEF799
S11340F03DF80EE02C48FEF739F80AE02B48FEF7AD
S113410035F806E02848FEF731F802E02848FEF7C3
S11341102DF801BD00810440AC64000024800440FB
S1134120B4640000BC640000C4640000CC640000FB
S1134130D46400007C5A0000340000003500000004
S113414068580000E4630000F46300006864000041
S113415074640000806400008C6400000464000047
S113416094580000A45A0000C0580000EC620000FB
S11341700063000014630000286300003C63000037
S1134180506300006463000078630000B0600000C6
S11341908C6300004C8004407C510000B851000046
S11341A0F4510000305200006C520000A85200008C
S11341B0085F000010B51E481E4988420ED000203A
S11341C008E0042141431A4A04234343194CE358A9
S11341D05350401C822149008842F2D31448FFF70F
S11341E029FD1549154A1648801A03E013780B7007
S11341F0521C491C0300581E002BF7D111491248C8
S1134200401A02E000220A70491C0200501E002AD3
S1134210F8D10E490E4A0F48801A03E013780B7048
S1134220521C491C0300581E002BF7D110BD00BFBF
S113423000F0FF1F0000000010F4FF1FDC6400000A
S1134240E464000018F4FF1F2CF4FF1F2CF4FF1F7C
S1134250100400001004000000B583B03648006864
S1134260F82189010143344801603448007800078B
S113427005D53248007808210143304801703048A0
S1134280802149020160012001901820009004233C
S1134290012200212B48FDF77BFF2B4908602A48A7
S11342A00068FF2800DCFEE72848006880214902F6
S11342B0014326480160244800680221FFF76AFC94
S11342C0FA218900FFF766FC214908601E4800684E
S11342D0FA218900FFF75EFC1E4908601D4800684A
S11342E017490968090F491CFFF768FC1A49086057
S11342F01948006812490968090C4907490F491C03
S1134300FFF75CFC154908601548C021890001606D
S11343101448C021890001600C4800688021C90448
S113432001430A4801609622D201094801680E48F7
S1134330FFF77EF807BD00003880044002D0074034
S11343404480044000127A0018F4FF1F04800440E3
S113435028F4FF1F1CF4FF1F20F4FF1F24F4FF1F89
S1134360389004403C90044000A0064080B5574873
S11343700078800602D55648FDF7F8FE53480078C9
S1134380000702D55348FDF7F1FE50480078400776
S113439002D55148FDF7EAFE4C480078800702D563
S11343A04E48FDF7E3FE4E480078000602D54D481E
S11343B0FDF7DCFE4A480078400602D54A48FDF77E
S11343C0D5FE47480078800602D54848FDF7CEFE62
S11343D043480078400702D54548FDF7C7FE4048EA
S11343E00078000702D54348FDF7C0FE3C4800783A
S11343F0800702D54048FDF7B9FE39480078C00768
S11344004DD53E48FDF7B2FE3D480078C0B24007A6
S1134410400F032802D13B48FDF7A8FE3848007836
S1134420C0B24007400F042806D13748007840073F
S113443002D13648FDF79AFE31480078C0B24007F1
S1134440400F042809D130480078C0B24007400F1B
S1134450012802D12E48FDF789FE29480078C0B210
S11344604007400F042809D127480078C0B240070C
S1134470400F022802D12748FDF778FE2048007833
S1134480C0B24007400F042809D11F480078C0B2C9
S11344904007400F032802D11F48FDF767FE10486C
S11344A00078C0B2002810D108480078C0B20028B3
S11344B00BD10B480178C9B21848FDF757FE0348E1
S11344C00178C9B21648FDF751FE01BD01F007405D
S11344D0345D0000D4630000C46200005C6000002E
S11344E000F00740D86200005C61000074610000C5
S11344F0E85E00007860000094600000005700004F
S113450001E007402C64000002E00740386400002A
S113451044640000506400005C6400002C5A0000F5
S1134520545A00004420666F7220434153452031A1
S1134530333A20456E746572205041525449414CBF
S11345402053544F50203220776974682073797354
S113455074656D20636C6F636B2064697361626C56
S1134560656420616E642062757320636C6F636B95
S113457020656E61626C65640A0D00000A204C4C73
S1134580575520636F6E666967757265642070693C
S11345906E7320505442302F493243305F53434CA2
S11345A02F46544D315F4348302F46544D315F51AF
S11345B0445F504841206973204C4C575520776123
S11345C06B65757020736F75726365200000000061
S11345D04720666F7220434153452031363A2045C7
S11345E06E61626C65204C50544D5220746F20777C
S11345F0616B657570206576657279203520736509
S1134600636F6E64732066726F6D20616E79206DC6
S11346106F64652065786365707420564C4C533024
S11346200A0D00000A204C4C575520636F6E6669D2
S113463067757265642070696E7320505444362F18
S1134640534349305F52582F46544D305F434836E8
S11346502F46544D305F464C5430206973204C4CE7
S113466057552077616B65757020736F757263653C
S1134670200000003020666F7220434153452030F3
S11346803A20456E74657220564C4C53302077693D
S1134690746820504F522064697361626C656420B1
S11346A02856657279204C6F77204C65616B616781
S11346B0652053544F50203029204E4F20504F52E4
S11346C00A0D00003120666F7220434153452031AA
S11346D03A20456E74657220564C4C5330207769ED
S11346E0746820504F5220656E61626C65642028A6
S11346F056657279204C6F77204C65616B616765F4
S11347002053544F50203029207769746820504F2B
S1134710520A0D003320666F722043415345203303
S11347203A20456E746572204C4C53207769746846
S1134730204C50544D522031207365636F6E6420B9
S113474077616B657570206C6F6F7020284C6F7784
S1134750204C65616B6167652053746F70290A0D85
S1134760000000004320666F72204341534520310E
S1134770323A20456E746572205041525449414C7E
S11347802053544F502031207769746820626F742D
S1134790682073797374656D20616E64206275732B
S11347A020636C6F636B732064697361626C65640E
S11347B00A0D00000A204C4C575520636F6E666941
S11347C067757265642070696E7320505444302F8D
S11347D0535049305F504353302F534349325F5253
S11347E0545320746F20626520616E204C4C5755E1
S11347F02077616B65757020736F75726365200037
S11348000A204C4C575520636F6E66696775726554
S1134810642070696E7320505444342F53434930DC
S11348205F5254532F46544D305F4348342F4557FD
S11348304D5F494E206973204C4C57552077616B6E
S113484065757020736F7572636520004520666F0F
S11348507220434153452031343A2052756E6E69BB
S11348606E6720636F72656D61726B2032207469AC
S11348706D657320696E2052554E202077697468E7
S11348802043504F207468656E20776974686F7593
S1134890742043504F0A0D004620666F7220434136
S11348A053452031353A2052756E6E696E67206328
S11348B06F72656D61726B20322074696D6573204F
S11348C0696E20564C505220776974682043504FCB
S11348D0207468656E20776974686F75742043501E
S11348E04F0A0D000A204C4C575520636F6E6669C1
S11348F067757265642070696E7320505443312F5C
S1134900534349315F5254532F46544D305F43480B
S113491030206973204C4C57552077616B65757056
S113492020736F7572636520000000000A204C4CF0
S1134930575520636F6E6669677572656420706988
S11349406E7320505443342F535049305F504353B7
S1134950302F46544D305F434833206973204C4C0C
S113496057552077616B65757020736F7572636539
S1134970200000000A204C4C575520636F6E666976
S113498067757265642070696E7320505443352FC7
S1134990535049305F53434B2F493253305F525881
S11349A04430206973204C4C57552077616B6575F2
S11349B07020736F75726365200000003720666F86
S11349C072204341534520373A20456E7465722066
S11349D0564C50522856657279204C6F7720506F90
S11349E07765722052554E2920696E20424C5045FD
S11349F0202838204D487A204372797374616C29D9
S1134A00200A0D00436F6E66696775726520636CDA
S1134A106F636B206672657175656E637920746F60
S1134A2020344D487A20636F726520636C6F636B2A
S1134A3020616E6420314D487A20666C6173682071
S1134A40636C6F636B0A0D2000000000436F6E6699
S1134A50696775726520636C6F636B20667265713C
S1134A6075656E637920746F20324D487A20636FC8
S1134A70726520636C6F636B20616E6420314D48F6
S1134A807A20666C61736820636C6F636B0A0D2017
S1134A90000000000A0A0D42656E63686D61726B66
S1134AA0696E6720636F646520686173206E6F743C
S1134AB0206265656E20696E7365727465642E206C
S1134AC020536B697070696E672066756E637469D4
S1134AD06F6E2121200A0A0D000000000A204C4CB0
S1134AE0575520636F6E66696775726564207069D7
S1134AF06E7320505443332F534349315F52582F20
S1134B0046544D305F434832206973204C4C57550E
S1134B102077616B65757020736F75726365200013
S1134B200A204C4C575520636F6E66696775726531
S1134B30642070696E7320505443362F50444230C1
S1134B405F455854524720746F20626520616E207F
S1134B504C4C57552077616B65757020736F757277
S1134B60636520000A204C4C575520636F6E6669BC
S1134B7067757265642070696E73205054433131D7
S1134B802F493253305F5258443120746F2062658C
S1134B9020616E204C4C57552077616B65757020F1
S1134BA0736F7572636520000A204C4C575520635F
S1134BB06F6E666967757265642070696E732050E4
S1134BC05444322F534349325F525820746F206249
S1134BD06520616E204C4C57552077616B6575706C
S1134BE020736F7572636520000000000A0D2A2D82
S1134BF02D2D2D2D2D2D2D2D2D2D2D2D2D2D2D2DE1
S1134C002D2D2D2D2D2D2D2D2D2D2D2D2D2D2D2DD0
S1134C102D2D2D2D2D2D2D2D2D2D2D2D2D2D2D2DC0
S1134C202D2D2D2D2D2D2D2D2D2D2D2A0000000067
S1134C300A0D2A202020202020202020202020208F
S1134C40202020202020204B4C204C6F7720506FB8
S1134C507765722044454D4F2020202020202020BD
S1134C602020202020202020202020202020202A36
S1134C70000000000A0D2A2D2D2D2D2D2D2D2D2D5A
S1134C802D2D2D2D2D2D2D2D2D2D2D2D2D2D2D2D50
S1134C902D2D2D2D2D2D2D2D2D2D2D2D2D2D2D2D40
S1134CA02D2D2D2D2D2D2D2D2D2D2D2D2D2D2D2D30
S1134CB02D2D2D2A0A0D00004B20666F72204341D2
S1134CC053452032303A20456E74657220436F6D2F
S1134CD070757465204D6F64652072756E20666F03
S1134CE07228693D303B693C776169745F636F7515
S1134CF06E743B692B2B290A0D00000053746172FA
S1134D0074696E672072756E6E696E6720436F7288
S1134D10656D61726B20696E20564C505220776924
S1134D2074682D2D2D2043504F206D6F64652065D0
S1134D306E61626C65642E200A0D20202000000044
S1134D400A0D2A2D2D2D2D2D2D2D2D2D2D2D2D2DD5
S1134D502D44204520422055204720202020452056
S1134D604E20412042204C204520442D2D2D2D2D18
S1134D702D2D2D2D2D2D2D2D2D2D2D2D2D2D2D2A62
S1134D800A0D20000A0D2A2D2D2D2D2D2D2D2D2D12
S1134D902D2D2D2D2D442045204220552047202007
S1134DA02020442049205320412042204C204520EB
S1134DB0442D2D2D2D2D2D2D2D2D2D2D2D2D2D2D08
S1134DC02D2D2D2A000000000A0D2A2D2D2D2D2D0C
S1134DD02D2D507265737320535734207468656E9B
S1134DE020707265737320526573657420746F202C
S1134DF072652D656E61626C652064656275672DF0
S1134E002D2D2D2D2D2D2D2D2A0000000A0D2A2D9E
S1134E102D2D2D2D2D2D2D2D2D2D2D2D2D4420459C
S1134E202042205520472020202045204E2041208C
S1134E3042204C204520442D2D2D2D2D2D2D2D2D62
S1134E402D2D2D2D2D2D2D2D2D2D2D2A0000000045
S1134E500A20496E76616C6964204C4C5755206376
S1134E606F6E666967757265642070696E20505450
S1134E7045312F534349315F52582F493243315FF3
S1134E8053434C202F535049315F53494E00000087
S1134E904220666F7220434153452031313A204508
S1134EA06E746572204E6F726D616C2053544F5056
S1134EB02066726F6D2052554E206F7220564C50F2
S1134EC0532066726F6D20564C50520A0D0000003C
S1134ED04920666F7220434153452031383A2045BA
S1134EE06E74657220564C505220696E20424C50AC
S1134EF04920617420436F7265204672657175653F
S1134F006E6379206F662034204D487A0A0D0000C4
S1134F104A20666F7220434153452031393A204577
S1134F206E74657220564C505220696E20424C506B
S1134F304920617420436F726520467265717565FE
S1134F406E6379206F662032204D487A0A0D000086
S1134F50507265737320616E79206B657920746F6C
S1134F6020656E746572204C4C53207769746820F8
S1134F704C50544D522031205365636F6E6420773A
S1134F80616B657570206C6F6F700A0D20000000F6
S1134F90546F206578697420656974686572206847
S1134FA0697420524553455420627574746F6E20A1
S1134FB06F72207761697420666F72206C6F6F70F6
S1134FC020746F20636F6D706C6574650000000061
S1134FD05374617274696E672072756E6E696E6760
S1134FE020436F72656D61726B20696E20564C5060
S1134FF05220776974686F75742043504F206D6F29
S1135000646520656E61626C65642E200A0D000083
S11350102020202020202020200A0D5B706F727435
S1135020615F6973725D20496E7465727275707424
S11350302070756C6C6564204F5554206F66204356
S11350406F6D70757465204D6F646520200A0D00C6
S11350500A20496E76616C6964204C4C5755206374
S11350606F6E666967757265642070696E2050544E
S11350704131332F46544D315F434831202F46543C
S11350804D315F51445F5048420000000A204C4CAF
S1135090575520636F6E66696775726564206D6F1E
S11350A064756C6573206173204C4C57552077618F
S11350B06B65757020736F7572636573203D203066
S11350C078253032582C000045786974696E672061
S11350D074657374206561726C79202D2044696451
S11350E020796F752064697361626C65204C50543B
S11350F0524D20696E746572727570743F200A0D8A
S1135100000000002020202020202020200A0D4C18
S11351105054524D20496E746572727570742070CB
S1135120756C6C6564204F5554206F6620436F6D19
S113513070757465204D6F646520200A0D000000B1
S11351400A0D496E20564C5052204D6F6465202143
S1135150204D75737420676F20746F2052554E2054
S1135160746F206368616E676520436C6F636B20A6
S11351704D6F646573202D2D3E200000466C6173D5
S1135180682073697A653A202038204B4220707277
S11351906F6772616D20666C6173682C20302E32EB
S11351A035204B422070726F74656374696F6E2092
S11351B0726567696F6E0000466C6173682073697D
S11351C07A653A20203136204B422070726F677224
S11351D0616D20666C6173682C20302E35204B4243
S11351E02070726F74656374696F6E20726567698D
S11351F06F6E0900466C6173682073697A653A20A2
S1135200203332204B422070726F6772616D2066CA
S11352106C6173682C2031204B422070726F74656E
S11352206374696F6E20726567696F6E09000000B0
S1135230466C6173682073697A653A20203634209D
S11352404B422070726F6772616D20666C61736887
S11352502C2032204B422070726F74656374696F26
S11352606E20726567696F6E09000000466C617399
S1135270682073697A653A2020313238204B422005
S113528070726F6772616D20666C6173682C203474
S1135290204B422070726F74656374696F6E207264
S11352A06567696F6E090000466C617368207369F5
S11352B07A653A2020323536204B422070726F676F
S11352C072616D20666C6173682C2034204B42201F
S11352D070726F74656374696F6E20726567696F4D
S11352E06E0900000A4552522120496E76616C69AC
S11352F064204952512076616C7565207061737326
S1135300656420746F20656E61626C6520697271DA
S11353102066756E6374696F6E210A000A20496EF7
S113532076616C6964204C4C575520636F6E6669D6
S113533067757265642070696E20505445322F532E
S11353405049315F53434B2F53444843305F4443E8
S11353504C4B00000A20496E76616C6964204C4C09
S1135360575520636F6E666967757265642070694E
S11353706E20505445342F535049315F50435330BD
S11353802F53444843305F44330000000A20496EE1
S113539076616C6964204C4C575520636F6E666966
S11353A067757265642070696E20505441342F46CD
S11353B0544D305F4348312F4E4D492F455A505F6D
S11353C0435300003220666F72204341534520321C
S11353D03A20456E74657220564C4C533120285641
S11353E0657279204C6F77204C65616B616765202D
S11353F053544F502031290A0D0000003420666FA9
S113540072204341534520343A20456E746572201E
S1135410564C4C5333202856657279204C6F7720B4
S11354204C65616B6167652053544F502033290AE2
S11354300D0000004120666F722043415345203126
S1135440303A20456E746572205741495420667283
S11354506F6D2052554E206F7220564C5057206667
S1135460726F6D20564C50520A0D000020202020EF
S113547020202020200A0D57616974696E67206915
S113548073204F766572202D204E6F77204F555430
S1135490206F6620436F6D70757465204D6F646571
S11354A00A0D20000A0D2A20202020202020202060
S11354B02020202020202020202020257320257338
S11354C020202020202020202020202020202020D8
S11354D0202020202A000000507265737320616E22
S11354E079206B657920746F20656E74657220561F
S11354F04C4C5330207769746820504F52206469B3
S11355007361626C650A0D200000000050726573BF
S11355107320616E79206B657920746F20656E74D9
S1135520657220564C4C5330207769746820504F74
S11355305220656E61626C65640A0D2000000000F3
S11355400A0D204552524F52202D2063616E6E6F1A
S11355507420656E74657220564C50572066726FC5
S11355606D2052756E204D6F64652020210A0D2038
S113557000000000537461727420436F72654D61C2
S1135580726B20696E20436F6D70757465204F6E69
S11355906C79202843504F29204D6F6465202D2DB0
S11355A03E200A0D00000000204E6F772072756EB9
S11355B06E696E6720436F72656D61726B207769E7
S11355C074686F75742043504F206D6F6465206557
S11355D06E61626C65642E200A0D00000A0D20695C
S11355E06E2050454520636C6F636B206D6F64655E
S11355F0206D6F76696E6720746F20424C50452091
S1135600636C6F636B206D6F6465200A0D0000008E
S11356103620666F72204341534520363A20456E4A
S113562074657220564C50532856657279204C6F1D
S11356307720506F7765722053746F70290A0D00BC
S11356403820666F72204341534520383A2045780C
S1135650697420564C50522856657279204C6F77E5
S113566020506F7765722052554E290A0D000000B4
S11356703920666F72204341534520393A20456EE4
S113568074657220564C50572856657279204C6FB9
S11356907720506F7765722057414954290A0D00CD
S11356A0507265737320616E79206B657920746F15
S11356B020656E74657220564C505220696E2042EB
S11356C04C5049206D6F6465200A0D2000000000D5
S11356D0537461727420436F6D70757465204D6FDF
S11356E06465202D2D3E2077616974696E6720669C
S11356F06F7220256420636F756E74732020200000
S11357000A0D5B6F75745352535D57616B65757009
S113571020626974207365742066726F6D206C6FEB
S11357207720706F776572206D6F646520000000CC
S11357300A2A2A2A2A64656661756C745F69737221
S113574020656E7465726564206F6E20766563747F
S11357506F722025642A2A2A2A2A0D0A0A000000C8
S11357603520666F72204341534520353A20456EFB
S1135770746572204C4C53284C6F77204C65616BD8
S11357806167652053746F70290A0D005072657348
S1135790732053573320746F2077616B65207570C5
S11357A02066726F6D204E6F726D616C2053746F42
S11357B0700A0D2000000000507265737320535767
S11357C03320746F2077616B652075702066726F6B
S11357D06D2053746F70205053544F5031200A0D74
S11357E02000000050726573732053573320746F88
S11357F02077616B652075702066726F6D2053741D
S11358006F70205053544F50320A0D200000000096
S11358100A0D204C50544D5220436C6F636B20731F
S11358206F7572636520697320746865204D434702
S11358304952434C4B200A0D000000000A0D204C35
S113584050544D5220436C6F636B20736F757263B9
S11358506520697320746865204F53434552434C57
S11358604B200A0D000000000A0D556E7265636F2F
S1135870676E697A6564204B696E65746973207319
S113588075622D66616D696C7920646576696365FE
S11358902E0A0D000A0D556E7265636F676E697A84
S11358A06564204B696E65746973207061636B6114
S11358B0676520636F64652E20202020202000006F
S11358C00A0D556E7265636F676E697A6564204B65
S11358D0696E657469732066616D696C79206174A1
S11358E0747269627574652E0A0D00004820666F33
S11358F07220434153452031373A20446973616231
S11359006C65204C50544D522077616B6575700A5C
S11359100D0000000A0D5072657373205357342034
S1135920746F2077616B652075702066726F6D20CF
S1135930564C4C53300A0D20000000005072657321
S11359407320616E79206B657920746F20656E74A5
S11359506572204E6F726D616C2053746F700A0D06
S113596020000000507265737320616E79206B65AE
S11359707920746F20656E7465722053746F702083
S11359805053544F50310A0D20000000507265737B
S11359907320616E79206B657920746F20656E7455
S11359A065722053746F70205053544F50320A0D57
S11359B020000000436F72656D61726B206974652D
S11359C0726174696F6E73203D20307825303258CF
S11359D0206F662032200A0D000000000A0D204CC2
S11359E050544D5220436C6F636B20736F75726318
S11359F06520697320746865204C504F434C4B20DC
S1135A000A0D00000A0D204C50544D5220436C6F77
S1135A10636B20736F7572636520697320746865A6
S1135A20204552434C4B3332200A0D005B6F757492
S1135A305352535D52434D5F535253302069732088
S1135A405A45524F2020203D202523303258200D26
S1135A500A0D00005B6F75745352535D52434D5FE2
S1135A6053525331206973205A45524F2020203D10
S1135A70202523303258200D0A0D00000A0D556EE2
S1135A807265636F676E697A6564204B696E6574CD
S1135A9069732066616D696C7920646576696365F4
S1135AA02E0A0D000A0D4C6F7720506F7765722017
S1135AB04C696E65207769746820436F72746578E9
S1135AC0204D302B0A0D0A0D0000000010B50749C7
S1135AD079441831064C7C44163404E0081D0A68E5
S1135AE0891888470100A142F8D110BD6C0200005A
S1135AF0780200000A0D53656C6563742074686550
S1135B002064657369726564206F7065726174697D
S1135B106F6E200A0D000000507265737320535796
S1135B203420746F2077616B652075702066726F06
S1135B306D20564C4C53300A0D2000005072657392
S1135B40732053573420746F2077616B6520757010
S1135B502066726F6D20564C4C53310A0D200000A4
S1135B6050726573732053573420746F2077616BC0
S1135B70652075702066726F6D20564C4C53320A46
S1135B800D20000050726573732053573420746FD6
S1135B902077616B652075702066726F6D20564C9E
S1135BA04C53330A0D200000507265737320535711
S1135BB03420746F2077616B652075702066726F76
S1135BC06D204C4C530A0D20000000005072657388
S1135BD0732053573320746F2077616B6520757081
S1135BE02066726F6D20564C50530A0D2000000041
S1135BF050726573732053573320746F2077616B31
S1135C00652075702066726F6D20564C50570A0DD2
S1135C10200000002020696E20564C5052204D6F09
S1135C206465206D6F76696E6720746F20564C50E2
S1135C3057210A0D200000005072657373205357DA
S1135C403320746F2077616B652075702066726FE6
S1135C506D20576169740A0D200000000A0D54720A
S1135C60616E736974696F6E696E672066726F6DB9
S1135C702052554E206D6F6465200A0D000000000F
S1135C800A0D5472616E736974696F6E696E672070
S1135C9066726F6D20564C5052206D6F6465200AF9
S1135CA00D0000000A0D5B706F7274615F6973729E
S1135CB05D20706F727461342049534620636C65B3
S1135CC0617265640A0D00000A0D20696E20424C61
S1135CD05049206D6F64652077697468206661732C
S1135CE07420495243200A0D000000000A0D204E82
S1135CF06F77206D6F76656420746F20424C504935
S1135D0020636C6F636B206D6F6465200A0D000067
S1135D100A0D204E6F77206D6F76656420746F20B6
S1135D20424C504520636C6F636B206D6F6465203B
S1135D300A0D00000A0D53746F70204D6F646520C6
S1135D4041636B6E6F776C65646765204572726F33
S1135D50722052657365740093DEFFFF1400000027
S1135D6018F4FF1F0000000020696E20424C5045CB
S1135D70206D6F6465206E6F772061742025642028
S1135D80487A0D0A000000004C20666F72204341DF
S1135D9053452032313A20546F20656E61626C6540
S1135DA02044454255470000507265737320616E6C
S1135DB079206B657920746F20656E746572205646
S1135DC04C4C53310A0D2000507265737320616E80
S1135DD079206B657920746F20656E746572205626
S1135DE04C4C53330A0D2000507265737320616E5E
S1135DF079206B657920746F20656E746572204C10
S1135E004C530A0D20000000507265737320616EBC
S1135E1079206B657920746F20656E7465722056E5
S1135E204C50530A0D200000507265737320616E4C
S1135E3079206B657920746F20656E7465722056C5
S1135E404C50520A0D200000507265737320616E2D
S1135E5079206B657920746F206578697420564CBD
S1135E6050520A0D20000000507265737320616E59
S1135E7079206B657920746F20656E746572205685
S1135E804C50570A0D200000507265737320616EE8
S1135E9079206B657920746F20656E746572205764
S1135EA06169740A0D200000696E20424C5049203B
S1135EB06D6F6465206E6F772061742025642048BF
S1135EC07A0D0A0D000000002020696E2052554E04
S1135ED0204D6F6465206D6F76696E6720746F2046
S1135EE0564C50520A0D20000A0D4C6F7373206FEC
S1135EF0662045787465726E616C20436C6F636BC9
S1135F002052657365740000455252212120556E5C
S1135F10646566696E656420666C61736820736984
S1135F207A650A0D00000000696E20424C50492039
S1135F306D6F6465206E6F7720617420256420483E
S1135F407A0D0A0020696E20464249206D6F64650F
S1135F50206E6F7720617420256420487A0D0A0032
S1135F6020696E20464549206D6F6465206E6F7709
S1135F7020617420256420487A0D0A0020696E206F
S1135F80464545206D6F6465206E6F7720617420EF
S1135F90256420487A0D0A0020696E204642452077
S1135FA06D6F6465206E6F772061742025642048CE
S1135FB07A0D0A0020696E20504245206D6F646599
S1135FC0206E6F7720617420256420487A0D0A00C2
S1135FD020696E20504545206D6F6465206E6F7793
