S01D00004C515255475F626D655F6578325F66726565646F6D2E737265633A
S1130000F82F002011040000212500002125000004
S113001021250000212500002125000021250000C4
S113002021250000212500002125000021250000B4
S113003021250000212500002125000021250000A4
S11300402125000021250000212500002125000094
S11300502125000021250000212500002125000084
S11300602125000021250000212500002125000074
S1130070212500002125000021250000AD200000DD
S11300802125000021250000212500002125000054
S11300902125000021250000212500002125000044
S11300A02125000021250000212500002125000034
S11300B04521000021250000212500002125000004
S11300C0FFFFFFFFFFFFFFFFFFFFFFFFFFFFFFFF3C
S11300D0FFFFFFFFFFFFFFFFFFFFFFFFFFFFFFFF2C
S11300E0FFFFFFFFFFFFFFFFFFFFFFFFFFFFFFFF1C
S11300F0FFFFFFFFFFFFFFFFFFFFFFFFFFFFFFFF0C
S1130400FFFFFFFFFFFFFFFFFFFFFFFFFEFFFFFFF9
S113041000200021002200230024002500260027BC
S113042062B600F007FDFEE7F4B504000F00674D67
S11304302E78E00702D5664800F09EFCA00702D59E
S1130440644800F099FC600703D500BF64A000F085
S113045093FC200703D500BF6FA000F08DFC2E7025
S11304606E78E00603D500BF79A000F085FCA006F5
S11304700BD53100B8000C2606400E4383A000F0D3
S11304807BFC687920210143697160060BD531003A
S11304903801302606400E4391A000F06DFC6879C7
S11304A040210143697120060BD53000BE01F6B22C
S11304B0064300BF9CA000F05FFC687980210143E3
S11304C069716E70AE78E0050BD53000BE07B60FCB
S11304D0064300BFA5A000F04FFCA8790121014309
S11304E0A971A0050BD53100B8000C2606400E43B7
S11304F0B0A000F041FCA87902210143A971600574
S11305000BD531003801302606400E43BBA000F065
S113051033FCA87904210143A97120050BD53000CF
S1130520BE01F6B2064300BFC5A000F025FCA879C1
S113053008210143A971AE70EE78E0040BD53000B8
S1130540BE07B60F064300BFCEA000F015FCA87985
S113055010210143A971A0040BD53100B8000C2669
S113056006400E43DAA000F007FCA87920210143DD
S1130570A97160040BD531003801302606400E43C2
S1130580154800F0F9FBA87940210143A971200422
S11305900BD53000BE01F6B2064300BFDDA000F06B
S11305A0EBFBA87980210143A971EE7068460078BD
S11305B0002801D12871F1BD2879694609780143E1
S11305C029712979054800F0D7FBF1BD00C0074027
S11305D078230000B8230000F02300003C2400002E
S11305E00A20496E76616C6964204C4C575520632F
S11305F06F6E666967757265642070696E20505409
S113060045342F535049315F504353302F5344489E
S113061043305F44330000000A20496E76616C6900
S113062064204C4C575520636F6E6669677572651C
S1130630642070696E20505441342F46544D305F0D
S11306404348312F4E4D492F455A505F43530000C4
S11306500A20496E76616C6964204C4C57552063BE
S11306606F6E666967757265642070696E20505498
S11306704131332F46544D315F434831202F465486
S11306804D315F51445F5048420000000A204C4CF9
S1130690575520636F6E666967757265642070696B
S11306A06E7320505442302F493243305F53434CD1
S11306B02F46544D315F4348302F46544D315F51DE
S11306C0445F504841206973204C4C575520776152
S11306D06B65757020736F75726365200000000090
S11306E00A204C4C575520636F6E666967757265B6
S11306F0642070696E7320505443312F5343493141
S11307005F5254532F46544D305F43483020697331
S1130710204C4C57552077616B65757020736F754D
S113072072636520000000000A204C4C575520637A
S11307306F6E666967757265642070696E732050A8
S11307405443332F534349315F52582F46544D304D
S11307505F434832206973204C4C57552077616BB6
S113076065757020736F7572636520000A204C4CA8
S1130770575520636F6E666967757265642070698A
S11307806E7320505443342F535049305F504353B9
S1130790302F46544D305F434833206973204C4C0E
S11307A057552077616B65757020736F757263653B
S11307B0200000000A204C4C575520636F6E666978
S11307C067757265642070696E7320505443352FC9
S11307D0535049305F53434B2F493253305F525883
S11307E04430206973204C4C57552077616B6575F4
S11307F07020736F75726365200000000A204C4CF2
S1130800575520636F6E66696775726564207069F9
S11308106E7320505443362F504442305F45585431
S1130820524720746F20626520616E204C4C5755EE
S11308302077616B65757020736F75726365200036
S11308400A204C4C575520636F6E66696775726554
S1130850642070696E732050544331312F493253F0
S1130860305F5258443120746F20626520616E20DD
S11308704C4C57552077616B65757020736F75729A
S1130880636520000A204C4C575520636F6E6669DF
S113089067757265642070696E7320505444302FFC
S11308A0535049305F504353302F534349325F52C2
S11308B0545320746F20626520616E204C4C575550
S11308C02077616B65757020736F757263652000A6
S11308D00A204C4C575520636F6E666967757265C4
S11308E0642070696E7320505444322F534349324C
S11308F05F525820746F20626520616E204C4C5703
S1130900552077616B65757020736F757263652010
S1130910000000000A204C4C575520636F6E666936
S113092067757265642070696E7320505444362F65
S1130930534349305F52582F46544D305F43483635
S11309402F46544D305F464C5430206973204C4C34
S113095057552077616B65757020736F7572636589
S11309602000000010B50C001168012902D00229F2
S113097004D008E0C0B25168884704E09168087068
S11309809068401C90602068401C206010BDF0B549
S11309901D00002300240370461C002A0F6814D095
S11309A0002F14D03800290000F0F8F90100684342
S11309B03A1A02D5D243313200E030320F0032709D
S11309C0761C641C002F18D0ECE7002F03D13020D4
S11309D03070012411E03800290000F0F3F901001F
S11309E06943791A0A2901D2303100E0373107000E
S11309F03170761C641C002FEDD12000F0BDF1B5E0
S1130A0090B0170000200090049106E0109A694607
S1130A10FFF7A8FF0498401C04900498007800286D
S1130A2000D1A6E125280AD00A28EFD1109A6946F8
S1130A300D20FFF797FF109A69460A20E8E7002582
S1130A4002E02800102505430498401C0490007817
S1130A5020280ED02328F4D02B2807D02D2802D00C
S1130A60302809D00BE028000125ECE728000225F6
S1130A70E9E728000425E6E728000825E3E70499C8
S1130A80491E002604E0B200921952008618303E36
S1130A90491C08780200303A092AF4D92E2804D1D6
S1130AA0491C087830380928FAD908784C2804D029
S1130AB0682802D06C2800D0491E491C049108788B
S1130AC0582867D0622800D1C5E0632800D113E11B
S1130AD0642813D0692811D06E2800D144E16F280E
S1130AE000D1B3E0702800D1BAE0732800D107E147
S1130AF0752800D1B9E078284CD087E7386806908B
S1130B003F1D0A23012206A907A8FFF740FF04009E
S1130B1007A8001905900698002801D52D2006E0A5
S1130B20A80701D52B2002E0680703D520200190F7
S1130B30641C01E000200190280713D501980028C7
S1130B4003D0109A6946FFF70DFFB44201DB34006D
S1130B50B6E0109A69463020FFF704FF641CB442E3
S1130B60F5DAF6E7E8070CD40294B44209DA109AED
S1130B7069462020FFF7F6FE0298401C0290B0421E
S1130B80F5DB0198002800D19AE0109A6946FFF736
S1130B90E9FE95E0386803903F1D1023002203A965
S1130BA007A8FFF7F4FE040007A800190590002029
S1130BB00290280719D5E8060BD5109A694630200B
S1130BC0FFF7D0FE109A69467820FFF7CBFE01208C
S1130BD00290B44207DA109A69463020FFF7C2FE49
S1130BE0641CB442F7DB34001FE0E8071DD4E806B8
S1130BF000D5A41C0194B44209DA109A6946202055
S1130C00FFF7B0FE0198401C0190B042F5DBE80606
S1130C100BD5109A69463020FFF7A4FE109A694656
S1130C207820FFF79FFE01200290E80648D502983D
S1130C30002845D1109A69463020FFF793FE109A98
S1130C4069467820FFF78EFEA41C39E038680390CB
S1130C503F1D08230DE0386803903F1D022308E080
S1130C60386803903F1D102303E0386803903F1D4C
S1130C700A23002203A907A8FFF789FE040007A896
S1130C800019059028070CD5B44200DB5FE7109AE1
S1130C9069463020FFF766FE641CB44200DB56E769
S1130CA0F5E7E8070CD40194B44209DA109A6946CE
S1130CB02020FFF757FE0198401C0190B042F5DB5D
S1130CC005980078002807D0109A6946FFF74AFE75
S1130CD00598401E0590F3E7E80700D49AE6B4426D
S1130CE000DB97E6109A69462020FFF73BFE641C60
S1130CF0B44200DB8EE6F5E73868C0B23F1D85E6F6
S1130D00386802903F1D002800D183E600F071F896
S1130D100400E8070CD40194B44209DA109A694635
S1130D202020FFF71FFE0198401C0190B042F5DB24
S1130D3002980078002807D0109A6946FFF712FE3F
S1130D400298401C0290F3E7E80700D462E6B4423C
S1130D5000DB5FE6109A69462020FFF703FE641C5F
S1130D60B44200DB56E6F5E738683F1D00990160A0
S1130D7050E6009811B0F0BD0EB400B584B0012166
S1130D8000910549019105AA01006846FFF737FE65
S1130D90049908B00847000029230000CA0F00D0B6
S1130DA0494203105A400DD004B500D3404200F02C
S1130DB009F8009AD20701D34942124200D54042B1
S1130DC004BD0000094210D088420BD30122002345
S1130DD000185B418B4200D35B1A5241F8D31900CF
S1130DE01000704701000020704708B500F00CF8AF
S1130DF008BD01000020002902D17047491C401C95
S1130E000A78002AFAD17047704738B401210022C9
S1130E100368001D002B0BD00468001D0C4202D097
S1130E204D466D1E64192260241D1B1FF0D0FAE785
S1130E3032BC7047A3480021016000F099FA00F029
S1130E40CDFA00BFA8A0FFF797FF00F043FB00F026
S1130E5003F800F0B3FCFEE770B507269A4C20684F
S1130E60000F304006D0022808D005D3042809D04A
S1130E7006D309E09EA008E09FA006E0A0A004E03D
S1130E80A1A002E0A2A000E0A3A0FFF775FF2068E4
S1130E90000E3040042802D0052802D003E08BA0C5
S1130EA003E08BA001E000BFA5A0FFF765FF0F25BD
S1130EB02068284008281BD801A1095C8F4400BF82
S1130EC00A101430181C22302A0000BFA7A010E01A
S1130ED0AAA00EE0ADA00CE0AFA00AE0B1A0FFF71D
S1130EE04BFF00BFB2A0FFF747FF00BFB3A000E075
S1130EF0B6A0FFF741FF2068000D3040012801D162
S1130F00BDA000E0C6A0FFF737FF2068000C064034
S1130F10072E17D801A0805D874400BF080C101469
S1130F20181C2024C9A00EE0CDA00CE0D1A00AE03A
S1130F30D5A008E0D9A006E0DDA004E0E1A002E02D
S1130F40E5A000E06348FFF717FF0F216248FFF7B1
S1130F5013FF00F08BF8A06A000E05400CD0012DA1
S1130F600CD0032D0CD0052D0CD0072D0ED0092D3F
S1130F700AD00F2D0AD00BE0DCA00AE0574808E0A5
S1130F80574806E004A004E012A002E020A000E01C
S1130F902EA0FFF7F1FE70BD466C61736820736983
S1130FA07A653A20203634204B422070726F677283
S1130FB0616D20666C6173682C2032204B42207076
S1130FC0726F74656374696F6E20726567696F6EA2
S1130FD009000000466C6173682073697A653A20E1
S1130FE020323536204B422070726F6772616D205B
S1130FF0666C6173682C2034204B422070726F74CD
S1131000656374696F6E20726567696F6E090000AD
S1131010466C6173682073697A653A2020313238EE
S1131020204B422070726F6772616D20666C617331
S1131030682C2034204B422070726F74656374698D
S11310406F6E20726567696F6E0900004552522108
S11310502120556E646566696E656420666C6173F3
S1131060682073697A650A0D00000000F8B51D4C0C
S11310700320E0710026A671667126710127E773CB
S11310808025257020782842FCD0207A0090637A4D
S1131090A27AE17AA4A0FFF76FFE0320E071A671A3
S11310A0667104202071E773257020782842FCD0F3
S11310B0207A0090637AA27AE17A00BFA4A0FFF7B5
S11310C05BFEF1BD00810440248004403400000034
S11310D0350000007824000094240000A8240000B7
S11310E0E4240000000002400A0D0A0D0000000084
S11310F00A0D4B4C300000000A0D4B4C310000002F
S11311000A0D4B4C320000000A0D4B4C330000001A
S11311100A0D4B4C340000000A0D556E7265636F66
S1131120676E697A6564204B696E657469732066BD
S1131130616D696C79206465766963652E0A0D00BA
S11311400A0D556E7265636F676E697A6564204B2C
S1131150696E65746973207375622D66616D696C5F
S113116079206465766963652E0A0D0031367069ED
S11311706E202020202020200000000032347069DE
S11311806E202020202020200000000033327069CF
S11311906E20202020202000343870696E2020200A
S11311A020202000363470696E202020202020006A
S11311B0383070696E2020202020200031303070BB
S11311C0696E202020202020000000000A0D556EAA
S11311D07265636F676E697A6564204B696E6574C6
S11311E06973207061636B61676520636F64652E4A
S11311F020202020202000000A0D4C6F7720506F03
S1131200776572204C696E65207769746820436F36
S113121072746578204D302B0A0D0A0D0000000011
S11312200A0D556E7265636F676E697A6564204B4B
S1131230696E657469732066616D696C7920617487
S1131240747269627574652E0A0D00005352414D23
S11312502053697A653A20302E35204B420A0D001E
S11312605352414D2053697A653A202031204B4234
S11312700A0D00005352414D2053697A653A2020EB
S113128032204B420A0D00005352414D2053697ADB
S1131290653A202034204B420A0D00005352414D40
S11312A02053697A653A202038204B420A0D000009
S11312B05352414D2053697A653A20203136204BF0
S11312C0420A0D005352414D2053697A653A202059
S11312D03332204B420A0D005352414D2053697A58
S11312E0653A20203634204B420A0D00466C617367
S11312F0682073697A653A202038204B4220707246
S11313006F6772616D20666C6173682C20302E32B9
S113131035204B422070726F74656374696F6E2060
S1131320726567696F6E0000466C61736820706156
S113133072616D657465722076657273696F6E2073
S113134025642E25642E25642E25640A0D000000D4
S1131350466C6173682076657273696F6E204944C8
S11313602025642E25642E25642E25640A0D000094
S113137010B51049104C8C4204D08222D2002000B7
S113138000F06CFB200000F08BFB0C490C48421A67
S113139002D00C4800F04EFB0B480C49091A01D04E
S11313A000F0E2FB0A490B48421A02D00A4800F056
S11313B041FB10BD0000000000F0FF1F0000000012
S11313C0000000000000000010F4FF1F38F4FF1FAD
S11313D0000000000000000038F4FF1FF0B583B0E7
S11313E0344C606BF8218901014361630820324960
S11313F00A78024202D00A781043087000F050F8CC
S1131400802676022664012001901820009004238F
S113141001220021294800F0ABFB294D2860FF2858
S113142000DCFEE72068064326602E68FA27BF002A
S1131430F00F801940103900FFF7B0FC286130002C
S11314403900FFF7ABFC6860216C090F491CFFF7FA
S1131450B9FCA860216C4903490F491CFFF7B2FC91
S1131460E86000F010F81748410D01604160206801
S11314704904014321609622D2012969124800F0EF
S113148095FC03B0F0BD80B51048810D0160016882
S1131490902212030A4302601E2000F005FB01BDE6
S11314A00B48A021C90001600248016840220A4398
S11314B0026070470480044002D0074000127A00A2
S11314C018F4FF1F0490044000A00640109004404C
S11314D00CB00440F8B5484C6078800603D500BFD2
S11314E047A0FFF749FC08276078384203D000BFC3
S11314F04CA0FFF741FC04256078284203D000BFCC
S11315004CA0FFF739FC02266078304203D000BFBC
S11315104DA0FFF731FC2078000602D551A0FFF75B
S11315202BFC2078400602D553A0FFF725FC207839
S1131530800602D556A0FFF71FFC2078284202D06F
S113154059A0FFF719FC2078384202D05EA0FFF7BB
S113155013FC2078304202D062A0FFF70DFC207803
S1131560C0073AD566A0FFF707FC0725234E30785D
S11315702840032803D100BF6DA0FFF7FDFB30789E
S11315802840042805D17078284202D16BA0FFF7C7
S1131590F3FB30782840042807D1707828400128CC
S11315A003D100BF68A0FFF7E7FB30782840042888
S11315B007D170782840022803D100BF65A0FFF747
S11315C0DBFB30782840042807D170780540032DD0
S11315D003D100BF62A0FFF7CFFB207800280AD117
S11315E06078002807D1217860A0FFF7C5FB6178F7
S11315F068A0FFF7C1FBF1BD00F0074001E0074020
S11316000A0D53746F70204D6F64652041636B6ED7
S11316106F776C65646765204572726F72205265DE
S1131620736574000A0D4D444D2D4150205265736D
S1131630657400000A0D536F6674776172652052F9
S113164065736574000000000A0D436F7265204CD9
S11316506F636B7570204576656E74205265736593
S1131660740000000A0D506F7765722D6F6E205262
S113167065736574000000000A0D45787465726E28
S1131680616C2050696E205265736574000000001F
S11316900A0D5761746368646F6728434F502920AB
S11316A052657365740000000A0D4C6F7373206FEC
S11316B0662045787465726E616C20436C6F636B51
S11316C020526573657400000A0D4C6F7373206FAC
S11316D066204C6F636B20696E20504C4C20526521
S11316E0736574000A0D4C6F772D766F6C746167A7
S11316F065204465746563742052657365740000E5
S11317000A0D5B6F75745352535D57616B65757049
S113171020626974207365742066726F6D206C6F2B
S11317207720706F776572206D6F6465200000000C
S11317304C4C53206578697420000000564C4C537F
S11317403020657869742000564C4C5331206578FC
S113175069742000564C4C5332206578697400003B
S1131760564C4C5333206578697420005B6F757454
S11317705352535D52434D5F53525330206973208B
S11317805A45524F2020203D202523303258200D29
S11317900A0D00005B6F75745352535D52434D5FE5
S11317A053525331206973205A45524F2020203D13
S11317B0202523303258200D0A0D0000F8B500BF53
S11317C03DA0FFF7D9FA364EFA27BF00354C364D07
S11317D036480078C00715D541A0FFF7CDFA00F0D0
S11317E067FB2868206000F08AFB00F07EFC012182
S11317F0380000F0FBFC00F0CFFB00F01EFC00F012
S1131800CBFB14E05FA0FFF7B7FA00F051FB2868A8
S1131810206000F05FFB00F05AFC0121380000F06A
S11318209FFC00F081FB00F0D2FB00F07DFB042064
S113183000F037FC0F2000F037F91C2000F034F9D9
S1131840286830602168081A19490968451A00F0A7
S113185037FB21682AA0FFF78FFA31682FA0FFF722
S11318608BFA290034A0FFF787FA00F0EAFC00BFE6
S11318704CA0FFF781FA00BF5EA0FFF77DFA00F0ED
S113188059FD0028FBD0002202218020FEF7CCFD68
S11318900848FF211431016000F05BFD0020F2BD17
S11318A030F4FF1F2CF4FF1F18E000E000F00740A5
S11318B034F4FF1F0CB004400A0D52756E6E696E4D
S11318C06720746865204C515255475F626D655FAF
S11318D06578322070726F6A6563742E0A0D000099
S11318E057616B65757020696E697469616C697A9A
S11318F06174696F6E20666C6F770A0D00000000DA
S11319005379737469636B207374617274207661A4
S11319106C75653A20307825780A0D005379737414
S113192069636B20656E642076616C75653A20305E
S11319307825780A0D00000041637475616C206598
S11319407865637574696F6E206379636C6520666E
S11319506F7220696E697469616C697A6174696F08
S11319606E20706861736520696E206E6F726D61A0
S11319706C204320636F64653A20307825780A0D23
S1131980000000004E6F726D616C20696E697469AD
S1131990616C697A6174696F6E20666C6F770A0D89
S11319A0000000004E6F20706F74656E74696F6D77
S11319B065746572206F72204C4544206F6E20461A
S11319C0524545444F4D20626F6172642C20706C07
S11319D06561736520707265737320276C20746F62
S11319E020656E74657220564C4C5331206D6F64C3
S11319F0650A0D0050726573732053573128526580
S1131A0073657420627574746F6E29206F6E20463E
S1131A10524545444F4D20626F61726420746F20BB
S1131A206578697420564C4C5331206D6F64650A97
S1131A300D000000124207D08B0706D00B78491C1A
S1131A400370401C521EF7D87047830706D00B78EA
S1131A50491C0370401C521EF9D1704770B4103AEF
S1131A6003D378C9103A78C0FBD2530701D318C9FD
S1131A7018C001D508C908C0D20704D30B88038055
S1131A80891C801C002A01D50B78037070BC704738
S1131A901248016804220A43026030BF7047000004
S1131AA00F4908607047000080B5212804DB00BF9F
S1131AB00EA0FFF761F901BD01210211D20E121827
S1131AC052115201801A8140064802680A4302609A
S1131AD0054802681143016001BD000010ED00E0FB
S1131AE008ED00E080E200E000E100E00A45525227
S1131AF02120496E76616C696420495251207661D7
S1131B006C75652070617373656420746F20656EF5
S1131B1061626C65206972712066756E6374696FA9
S1131B206E210A00094205D0830705D00270401CCB
S1131B30491EF9D170470000130030B41400150099
S1131B40103902D310393CC0FCD2490700D30CC071
S1131B5000D504C0890002D30280801C002900D56E
S1131B60027030BC704700000022DBE70022E3E78C
S1131B70F6B504000F0019007D4D0326A8798008EE
S1131B80304005D1A879C00602D5A879800601D5D0
S1131B900120F6BD7748844201DB2120F6BD002AEE
S1131BA006D075482018754A904201D32220F6BD0C
S1131BB0002F00D00127481E6A46507068464078BE
S1131BC0192801D34120F6BD6846079A02776A4670
S1131BD01C20105618381070684600781B2801D352
S1131BE04220F6BD2000FFF7D9F865494118654A3F
S1131BF0914201D34320F6BD6A461C215156484305
S1131C00614940186149884201D34520F6BD69788D
S1131C10C3200840694609798900FA005C4B9C425C
S1131C2002DA1143102201E0114320220A43024345
S1131C306A705848844201DA002014E0564884420D
S1131C4001DA01200FE05548844201DA02200AE05B
S1131C505348844201DA032005E05248844201DA01
S1131C60042000E00520297803220A40C000104324
S1131C708021014329706846007900280CD04A4924
S1131C8002200223AA791A4201D1491EFAD1A97964
S1131C90014201D12320F6BDFA20C000A979C9066A
S1131CA001D5401EFAD1A879C00601D51120F6BD90
S1131CB0FA20C000A97989083140022901D0401EC8
S1131CC0F8D1A87980083040022801D01A20F6BD46
S1131CD0687920210143697128791F27E021084090
S1131CE06A4652783A4002432A716A794020114088
S1131CF06A4612783A400A4302436A71FA21C900DB
S1131D00AA79920601D4491EFAD1A979890601D487
S1131D101620F6BDFA210901AA79024201D1491E11
S1131D20FAD1A979014201D14420F6BD297939407B
S1131D30491C68790740183728788006800E287077
S1131D40FA20C000AA7992083240032A01D0401E2A
S1131D50F8D1A87980080640032E01D01B20F6BDD7
S1131D602000C9B2FFF71AF8FFB27843F6BD0000AD
S1131D700040064081F0FA024039D2FF4181BA01A5
S1131D80807BE1FF81841E00009423FD017519030B
S1131D9001127A00D1121300A1252600414B4C00F8
S1131DA081969800012D3101204E0000FCB5364883
S1131DB0036B040D1C430463344DEB78F3241C4083
S1131DC0EC700B00203B324CA34204D30168314A2F
S1131DD00A400260FEE71400FA20800041430091AB
S1131DE00846A100FEF7EEFF81000098FEF7EAFF27
S1131DF0844201D2001B00E0201A0190042705262A
S1131E00009821007143FEF7DDFF01007143009843
S1131E10FEF7D8FF844201D2001B00E0201A01998A
S1131E20814201D301903700761C212EE8DB20008B
S1131E306421FEF7C7FF410008180199814221D2AD
S1131E40381F052803D2E87A02210143E972A87AEF
S1131E501F26B043791E31400143A97200983140D6
S1131E60491C4C432100FEF7ADFF2978E0220A40CB
S1131E70010A0E4016432E706870E8780C21014365
S1131E80E970F3BDFEE700000480044000A00640B2
S1131E9031C30000FFFFFFF300BF80220379134228
S1131EA0FCD0C171704700792021084070470000C0
S1131EB006480021816006494160052101607047A0
S1131EC002480168012291430160704710E000E07C
S1131ED0FFFFFF000E480F490A6802400A608A0D9E
S1131EE00B6813430B60CB6A1840C862C86A02438C
S1131EF0CA6209480168094A0A43026070470848EF
S1131F00802149000160C1620648044901607047AC
S1131F10FFF8FFFF1490044014F00F40200001006C
S1131F201490145414F00F48734801688022120569
S1131F300A4302600320C04370490A6802400A60F1
S1131F400A680A600A680C239A430A600A680A60ED
S1131F500A6860239A430A600A6813430B604A685C
S1131F60142313434B608A69402313438B618A69AA
S1131F7002408A618A698A61CA6908239A43CA61EC
S1131F80CA6904231343CB61CA691040C861C86994
S1131F9003220243CA617047594880210905016040
S1131FA0584800210160584A1160584A6023136060
S1131FB0574A142313604023536181615549082310
S1131FC0DB430B60042191610321C1617047F8B5C3
S1131FD0FFF7AAFF4021504802680A4302608022AA
S1131FE003681343036003681340FCD10268114083
S1131FF001D00120F2BD876A466A026AC369846916
S1132000456980210902BE19B218D2181219521951
S11320101204520C0A438260876C466C026CC36BD8
S1132020846B456BBE19B218D218121952191204D6
S1132030520C1143C1600020F2BDF8B4374840216E
S1132040016080210160364801680029FCD13548CF
S11320500068002801D0012021E03348076AC669DE
S1132060826943690469C56880210902BE19B218EE
S1132070D218121952191204520C0A430260076C46
S1132080C66B826B436B046BC56ABE19B218D21857
S1132090121952191204520C114341600020F2BC6F
S11320A07047402101432148016070471F4801687F
S11320B009060BD51E4900694860087801220243CD
S11320C00A701C48016820224A40026070471A487E
S11320D0016880220A43026001680F229143016073
S11320E001680E220A43026070471448802101608F
S11320F013480E21016070473C80044008B003403F
S11321003C80044808B00B5008B00B5108B08B5207
S11321100CB0034824B0034424B0034024B0034863
S113212024B0835324B003532CB0034000B00340C5
S113213010F4FF1F00F00F4018800440188004487A
S113214018801C5042480168802252024A400260B2
S11321504048016880220A430260C121016070473F
S113216038B504003C4802680123134303603B482C
S113217002683B4B13400360026880231B03134334
S1132180036038480268384B134003600268830DCB
S1132190134303602F4D6868782290436860686831
S11321A068606868042202436A6068680322904396
S11321B0686068688A07920F02436A60002901D147
S11321C031A00AE0012901D139A006E0022901D198
S11321D041A002E0032902D149A0FEF7CDFDA0B23F
S11321E0A8602868C0210143296031BD38B50400C6
S11321F01E48012202601E48D20402601D48D20A11
S113220002601D48002202601C4801601C4D04202D
S11322106860002902D100BF1BA00AE0012901D196
S113222023A006E0022901D12BA002E0032902D158
S113223033A0FEF7A1FDA0B212490860C0202860B7
S113224031BD0448016801220A430260704700005E
S113225000F00F4000000440388004400070044047
S1132260FFFFF3FF04B00440FFF8FFFF3880044889
S113227000700C5904B0145404009C5104000C5018
S113228000000448080004400A204C50544D5220D9
S1132290436C6F636B20736F757263652069732081
S11322A0746865204D43474952434C4B200A0D0046
S11322B00A204C50544D5220436C6F636B20736F53
S11322C07572636520697320746865204C504F43B0
S11322D04C4B200A0D0000000A204C50544D522053
S11322E0436C6F636B20736F757263652069732031
S11322F0746865204552434C4B3332200A0D00006C
S11323000A204C50544D5220436C6F636B20736F02
S11323107572636520697320746865204F53434563
S113232052434C4B200A0D0080B501000448FFF7CE
S1132330B3FD01BD80B50248FFF7B5FD02BD000045
S113234000A006400A43427040780090FFF7A0FBCB
S113235001BD80B50748022101704178F8220A4086
S11323604270417804220A434270012181708078CE
S1132370EBE7000000E007400A20496E76616C69D3
S113238064204C4C575520636F6E6669677572659F
S1132390642070696E20505445312F534349315F96
S11323A052582F493243315F53434C202F535049E5
S11323B0315F53494E0000000A20496E76616C6912
S11323C064204C4C575520636F6E6669677572655F
S11323D0642070696E20505445322F535049315F48
S11323E053434B2F53444843305F44434C4B00000A
S11323F00A204C4C575520636F6E66696775726589
S1132400642070696E7320505444342F5343493010
S11324105F5254532F46544D305F4348342F455731
S11324204D5F494E206973204C4C57552077616BA2
S113243065757020736F7572636520000A204C4CBB
S1132440575520636F6E66696775726564206D6F9A
S113245064756C6573206173204C4C57552077610B
S11324606B65757020736F7572636573203D2030E2
S113247078253032582C00000A0D556E7265636F52
S1132480676E697A6564205352414D2053697A65B9
S11324902E0A0D0053696C69636F6E207265762095
S11324A025640A0D20000000466C6173682073697E
S11324B07A653A20203136204B422070726F677261
S11324C0616D20666C6173682C20302E35204B4280
S11324D02070726F74656374696F6E2072656769CA
S11324E06F6E0900466C6173682073697A653A20DF
S11324F0203332204B422070726F6772616D206608
S11325006C6173682C2031204B422070726F7465AB
S11325106374696F6E20726567696F6E09000000ED
S113252080B50348016800BF02A0FEF725FC01BD89
S113253004ED00E00A2A2A2A2A64656661756C742F
S11325405F69737220656E7465726564206F6E20B6
S1132550766563746F722025642A2A2A2A2A0D0A52
S11325600A00000010B5074979441831064C7C4430
S1132570163404E0081D0A68891888470100A1423E
S1132580F8D110BD08000000140000007FE8FFFF30
S11325902800000010F4FF1F0000000000F009F8FC
S11325A0002801D0FFF7DEFF0020FFF707F900F055
S11325B002F80120704780B500F002F801BD000068
S11325C00746384600F002F8FBE70000C046C04664
S11325D0024A11001820ABBEFBE700BF2600020030
S10F25E0C046C046C046C046FFF7D8FF06
S90325E1F6
